:100000000C9448010C9479010C9479010C947901B9
:100010000C9479010C9479010C9479010C94790178
:100020000C9479010C9465090C9465090C9465098C
:100030000C9479010C9479010C9479010C94790158
:100040000C9479010C9479010C9479010C94790148
:100050000C9479010C9479010C9479010C941B098E
:100060000C9479010C94E5080C94BB080C9479016C
:100070000C9479010C9479010C9479010C94790118
:100080000C9479010C9479010C9479010C94790108
:100090000C9479010C9479010C9479010C947901F8
:1000A0000C9479010C9479010C9479010C947901E8
:1000B0000C9479010C9479010C9479010C947901D8
:1000C0000C9479010C9479010C9479010C947901C8
:1000D0000C9479010C9479010C9479010C947901B8
:1000E0000C9479010C94AE050C9462030C945205A7
:1000F0000C9435030C943D030C94E7010C94E10936
:100100000C944A030C9458030C94F6010C94440389
:100110000C946A030C9439050C9439030C94540321
:100120000C9470030C94C6050C949D020C94180258
:100130000C94BA010C9474030C9451050C94E705CB
:100140000C944E030C9441030C949E120C94500298
:100150000C945C030C941E030C94E8050C9423038C
:100160000C940A020C943E070C94660300002100D4
:10017000240027002A002D00300033000101000078
:10018000040107010A0100000A0B02090C0D0E0808
:100190000703040100000000000000000000000050
:1001A000000000000000000000000000000000004F
:1001B000000012111000000000000000000000000C
:1001C000000000000000000000000000000020000F
:1001D0002300260029002C002F003200000100001F
:1001E00003010601090100002200250028002B0060
:1001F0002E003100340002010000050108010B014E
:1002000005050505070508080808020202020A0A92
:1002100008080404040401010101010101010303B0
:10022000030303030303040707070C0C0C0C0C0C5B
:100230000C0C0202020206060606060606060B0B58
:100240000B0B0B0B0B0B0102102020080810204099
:10025000102040800201020108040201010204088A
:100260001020408080402010080402018004020118
:100270008040201008040201080402010102040861
:10028000102040800102040810204080E1099E12E5
:1002900011241FBECFEFD1E2DEBFCDBF00E00CBF07
:1002A00017E0A0E0B2E0EAEDFAE200E00BBF02C026
:1002B00007900D92A834B107D9F728E0A8E4B7E079
:1002C00001C01D92A038B207E1F711E0C7E4D1E008
:1002D00000E006C021970109802FFE010E943F1512
:1002E000C634D10780E00807A9F70E94D40A0C940D
:1002F0005B150C940000CF92DF92EF92FF92CF93A8
:10030000DF93B0917408A0E08111AB2F8091750844
:1003100090E0880F991FAC0144535E4FC0907A085B
:10032000D0907B08E0907C08F0907D0830E020E0E1
:10033000FA01C591D491E881B90190E080E0EB2306
:10034000EA130AC02F5F3F4F6C157D058E059F0590
:1003500078F36FEF7FEFCB01DF91CF91FF90EF90BC
:10036000DF90CF900895DC01ED91FC910190F08138
:10037000E02D1994AF92BF92CF92DF92EF92FF924D
:100380000F931F93CF93DF936C017B018B01040FBD
:10039000151FEB015E01AE18BF08C017D10759F059
:1003A0006991D601ED91FC910190F081E02DC6019B
:1003B0001995892B79F7C501DF91CF911F910F9185
:1003C000FF90EF90DF90CF90BF90AF900895FC0129
:1003D000538D448D252F30E0842F90E0821B930BAA
:1003E000541710F0CF96089501970895FC01918D50
:1003F000828D981761F0A28DAE0FBF2FB11D5D9653
:100400008C91928D9F5F9F73928F90E008958FEFF4
:100410009FEF0895FC01918D828D981731F0828DA8
:10042000E80FF11D858D90E008958FEF9FEF0895FF
:10043000FC01918D228D892F90E0805C9F4F821B63
:1004400091098F739927089589E997E00E9418020E
:1004500021E0892B09F420E0822F0895FC01A48D6E
:10046000A80FB92FB11DA35ABF4F2C91848D90E0D6
:1004700001968F739927848FA689B7892C93A089B9
:10048000B1898C91837080648C93938D848D981343
:1004900006C00288F389E02D80818F7D80830895D6
:1004A000EF92FF920F931F93CF93DF93EC0181E0C4
:1004B000888F9B8D8C8D98131AC0E889F98980816B
:1004C00085FF15C09FB7F894EE89FF896083E8899E
:1004D000F98980818370806480839FBF81E090E090
:1004E000DF91CF911F910F91FF90EF900895F62E1D
:1004F0000B8D10E00F5F1F4F0F731127E02E8C8DB7
:100500008E110CC00FB607FCFACFE889F9898081FB
:1005100085FFF5CFCE010E942E02F1CFEB8DEC0FBF
:10052000FD2FF11DE35AFF4FF0829FB7F8940B8F18
:10053000EA89FB8980818062CFCFCF93DF93EC0182
:10054000888D8823B9F0AA89BB89E889F9898C91BB
:1005500085FD03C0808186FD0DC00FB607FCF7CF77
:100560008C9185FFF2CF808185FFEDCFCE010E9477
:100570002E02E9CFDF91CF91089580E090E0892BA2
:1005800029F00E94240281110E94000080E090E086
:10059000892B49F080E090E0892B29F00E9400002F
:1005A00081110E94000080E090E0892B49F080E0FA
:1005B00090E0892B29F00E94000081110E94000028
:1005C00080E090E0892B49F080E090E0892B29F0D1
:1005D0000E94000081110C9400000895282F30E043
:1005E000F901EA57FE4F9491F901EA5BFD4F4491FE
:1005F00020503E4FF9012491222309F435C099235C
:1006000011F191509231F8F4E92FF0E08827E45F7E
:10061000FC4F8F4F0C943F153D0341031E033503E0
:100620003903230344034A034E03540358035C0372
:100630006203660323036A037003740380918000DE
:100640008F7780938000E22FF0E0EE0FFF1FEA51DA
:10065000FE4FA591B4918FB7F894EC91611148C009
:1006600040954E234C938FBF0895809180008F7DDD
:10067000E8CF80918000877FE4CF84B58F7784BDF9
:10068000E2CF84B58F7DFBCF8091B0008F778093D0
:10069000B000D9CF8091B0008F7DF9CF80919000CC
:1006A0008F7780939000CFCF809190008F7DF9CF8E
:1006B00080919000877FF5CF8091A0008F77809305
:1006C000A000C1CF8091A0008F7DF9CF8091A000C4
:1006D000877FF5CF809120018F7780932001B3CF62
:1006E000809120018F7DF9CF80912001877FF5CF08
:1006F0004E2BB8CFCF93DF9390E0FC01EA5BFD4F28
:10070000249180509E4FFC0184918823C9F090E091
:10071000880F991FFC01E459FE4FA591B491FC018B
:10072000EA51FE4FC591D49161110DC09FB7F89465
:100730008C91209582238C938881282328839FBFC6
:10074000DF91CF910895623051F49FB7F8943C91B6
:10075000822F809583238C93E8812E2BEFCF8FB748
:10076000F894EC912E2B2C938FBFEACF863308F0B0
:10077000865320917B00982F9870277F922B90931F
:100780007B008770806480937C0080917A00806415
:1007900080937A0080917A0086FDFCCF809178006A
:1007A0009091790008953FB7F894809189079091CE
:1007B0008A07A0918B07B0918C0726B5A89B05C02E
:1007C0002F3F19F00196A11DB11D3FBFBA2FA92FD0
:1007D000982F8827BC01CD01620F711D811D911DCD
:1007E00042E0660F771F881F991F4A95D1F7089539
:1007F0008F929F92AF92BF92CF92DF92EF92FF9231
:100800004B015C010E94D3036B017C010E94D30366
:100810006C197D098E099F09683E73408105910519
:10082000A8F321E0821A9108A108B10888EEC80E49
:1008300083E0D81EE11CF11C81149104A104B104D1
:1008400029F7FF90EF90DF90CF90BF90AF909F90EF
:100850008F900895CF92DF92EF92FF920F931F93A4
:10086000CF93DF93CDB7DEB7C054D1400FB6F89425
:10087000DEBF0FBECDBF2FB7F89480919507909142
:100880009607A0919707B09198072FBF40917608DF
:100890005091770860917808709179088C019D01DA
:1008A000041B150B260B370BB901A801403D57401F
:1008B0006105710590F480917E08C05CDE4F0FB633
:1008C000F894DEBF0FBECDBFDF91CF911F910F9186
:1008D000FF90EF90DF90CF900895809376089093EB
:1008E0007708A0937808B093790810927108109255
:1008F000700810926F0810926E0810926D0862E0F6
:10090000809172080E947A0361E070E080E090E0DC
:100910000E94F80361E0809172080E947A0360E00F
:10092000809172080E94EE02809173088551823096
:1009300020F58BE291E10197F1F762E08091720876
:100940000E947A0380917F0890E08230910538F010
:10095000880F991F880F991F05970197F1F7F89451
:1009600080E00E947B016F3F7F4F8F4F9F4F61F46C
:1009700010927E08789480E0A0CF64E170E080E07F
:1009800090E00E94F803D9CF81E00E947B016F3F85
:100990007F4F8F4F9F4F61F38E010F5F1F4F6E018F
:1009A0008FEBC81A8EEFD80A780180E00E947B0195
:1009B000F701608371838283938381E00E947B01CE
:1009C000F7016483758386839783F8E0EF0EF11C4B
:1009D000EC14FD0451F7789430E020E0F801C08079
:1009E000D180E280F3804481558166817781FFEF79
:1009F000CF16DF06EF06FF0631F04F3F8FEF5807A7
:100A00006807780719F410927E08B5CFF90183E0E2
:100A1000F595E7958A95E1F7E359F74F8081880FBF
:100A2000C416D506E606F70610F180832F5F3F4F08
:100A3000085F1F4F2832310589F6409171082091D7
:100A40006D0880916E08280F3327331F80916F083F
:100A5000280F311D80917008820F932F911D9927C7
:100A60004817190681F681E080937E0826CF8160C1
:100A7000DCCF20918F07309190072817390771F448
:100A800090918D0780918E07981741F0E0918D0726
:100A9000F0E0E85BF84F808190E008958FEF9FEFE2
:100AA00008950895EF92FF920F931F93CF93DF93D2
:100AB000DC015C96ED90FC905D97E114F10479F413
:100AC00081E090E013969C938E93129790E080E0E3
:100AD000DF91CF911F910F91FF90EF900895519664
:100AE000ED91FC91529750968C915097982F90953C
:100AF0000FB75E962C915E97122F127021FD6095B4
:100B0000F8942081112319F1282B2083E7012197E4
:100B1000F1F728E0462F50E0308160FF1AC0382BF3
:100B20003083E7012197F1F7BA0175956795215058
:100B300089F7112381F08081892380830FBF5C9620
:100B40008D919C910197F1F781E090E0C1CF29232D
:100B5000DCCF3923E5CF9081892BEFCF20918F0710
:100B6000309190072817390771F480918E072091F2
:100B70008D0790E0805C9F4F821B910960E470E0DC
:100B80000E940915089590E080E0089520918F0754
:100B90003091900728173907B9F490918D0780910B
:100BA0008E07981789F0E0918D07F0E0E85BF84F29
:100BB000808120918D0730E02F5F3F4F2F733327C7
:100BC00020938D0790E008958FEF9FEF089508958B
:100BD00090E080E00895CF93DF93EC0160E08E8198
:100BE0000E94EE0261E08E810E94EE0260E08E8142
:100BF0000E94EE028BE891E00197F1F7DF91CF912F
:100C00000895CF92DF92EF92FF920F931F93CF93AD
:100C1000DF936C017C0187E0E80EF11CD0E0C0E0BE
:100C2000062F10E0B8010C2E02C0759567950A9446
:100C3000E2F76170F70181917F010E94EE02219637
:100C4000C430D10579F7C601DF91CF911F910F9183
:100C5000FF90EF90DF90CF900C94EB05CF92DF9256
:100C6000EF92FF920F931F93CF93DF93EC01F62E39
:100C7000642F8C810E94EE028D818F3F19F060E01D
:100C80000E94EE020F2D10E08F8584FF25C06E01BB
:100C900087E0C80ED11CF12CE12CB8010E2C02C04B
:100CA000759567950A94E2F76170F60181916F017D
:100CB0000E94EE02FFEFEF1AFF0A88E0E816F10447
:100CC00061F7CE01DF91CF911F910F91FF90EF90CF
:100CD000DF90CF900C94EB05B80184E07595679593
:100CE0008A95E1F7CE010E9401066F2DCE01DF91BA
:100CF000CF911F910F91FF90EF90DF90CF900C94C8
:100D0000010640E0682F86E398E00C942E0681E00F
:100D10000E9481068BE39FE10197F1F70895CF933D
:100D2000DF93623029F490914508986090934508CC
:100D30006093490810924A0890E490934B0880937E
:100D40004C08805C80934D0861E080913A080E94D5
:100D50007A0380913B088F3F19F061E00E947A038B
:100D600061E080913C080E947A03C6E3D8E09E01CE
:100D7000265338408091450884FD0BC084E090E004
:100D800021962817390744F461E08E810E947A0386
:100D9000EECF88E090E0F4CF8BE39DE00197F1F790
:100DA00060E080913A080E94EE0260E080913C0889
:100DB0000E94EE0280913B088F3F19F060E00E9494
:100DC000EE028091450884FD34C063E086E398E03C
:100DD0000E940106CBE4D6E4CE010197F1F763E06F
:100DE00086E398E00E9401062197F1F763E086E32D
:100DF00098E00E94010683E592E00197F1F762E036
:100E000086E398E00E9401068091450880620E9476
:100E1000810684E0809346088CE00E9481060E944F
:100E2000870682E08093470886E0DF91CF910C949B
:100E3000810680620E9481068BE496E40197F1F7B7
:100E40008091450880620E94810683E592E00197C7
:100E5000F1F78091450880620E948106D5CF90917C
:100E60004908691710F06FEF690FE62FF0E0EA5CB0
:100E7000F74F9489890F80680C94810641E00E94A5
:100E80002E0681E090E00895FB0101900020E9F733
:100E90003197AF01461B570BDC01ED91FC910280AD
:100EA000F381E02D19948F929F92AF92BF92EF92AF
:100EB000FF920F931F93CF93DF93CDB7DEB7A19728
:100EC0000FB6F894DEBF0FBECDBF7C01FA01CB0197
:100ED00019A2223008F42AE08E010F5D1F4F822EE6
:100EE000912CB12CA12CBF01A50194010E941D15CC
:100EF000F901CA016A300CF5605DD8016E938D016D
:100F0000232B242B252B79F790E080E0109721F0FC
:100F1000BD01C7010E944407A1960FB6F894DEBF39
:100F20000FBECDBFDF91CF911F910F91FF90EF903A
:100F3000BF90AF909F908F900895695CDECFCF9265
:100F4000DF92EF92FF920F931F93CF93DF936B018A
:100F5000770FEE08FF08F7FE1BC0EC016DE20E9460
:100F6000B3018C0144275527BA014C195D096E095C
:100F70007F092AE0CE010E945307800F911FDF9165
:100F8000CF911F910F91FF90EF90DF90CF90089538
:100F90002AE0B701A601DF91CF911F910F91FF9039
:100FA000EF90DF90CF900C945307CF93DF93BC0169
:100FB00089E997E00E944407EC0160E572E089E965
:100FC00097E00E9444078C0F9D1FDF91CF910895F9
:100FD0008F929F92AF92BF92CF92DF92EF92FF9249
:100FE0000F931F93CF93DF93EC016A017B01AB0159
:100FF0009601CB01B6010E94F81463E572E08111FD
:1010000026C046015701E894B7F82FEF3FEF4FE7AE
:101010005FE7C501B4010E94F81481110CC02FEFE5
:101020003FEF4FE75FE7C501B4010E94271367E573
:1010300072E0181664F02FEF3FEF4FE75FE4C7014F
:10104000B6010E94861418168CF46BE572E0CE018E
:10105000DF91CF911F910F91FF90EF90DF90CF9094
:10106000BF90AF909F908F900C9444072FEF3FEF6D
:101070004FE75FECC701B6010E94271387FDE5CF5C
:1010800020E030E0A901C701B6010E94271310E05B
:1010900000E087FF09C06DE2CE010E94B3018C0120
:1010A000F7FAF094F7F8F0942AE037ED43EA5BE3BF
:1010B000C701B6010E94BB126B017C010E94A513FF
:1010C0004B015C010E94D4139B01AC01C701B60126
:1010D0000E94BA126B017C012AE0B501A401CE0185
:1010E0000E945307080F191F6EE2CE010E94B30140
:1010F000080F191F20E030E040E251E4C701B601BB
:101100000E948B144B015C010E94A5136B01F12C12
:10111000E12C2AE0B701A601CE010E945307080F77
:10112000191FC701B6010E94D4139B01AC01C50170
:10113000B4010E94BA1220E030E040E251E40E9483
:101140008B140E94A513AB0170E060E02AE0CE0191
:101150000E945307800F911FDF91CF911F910F9134
:10116000FF90EF90DF90CF90BF90AF909F908F90C7
:1011700008950C9444071F920F920FB60F921124FA
:101180000BB60F922F933F934F935F936F937F9381
:101190008F939F93AF93BF93EF93FF9389E997E06A
:1011A0000E942E02FF91EF91BF91AF919F918F917D
:1011B0007F916F915F914F913F912F910F900BBE57
:1011C0000F900FBE0F901F9018951F920F920FB6A1
:1011D0000F9211240BB60F922F938F939F93EF933F
:1011E000FF93E091A907F091AA078081E091AF07F2
:1011F000F091B00782FD1DC090818091B2078F5F92
:101200008F732091B307821741F0E091B207F0E0AD
:10121000E756F84F958F8093B207FF91EF919F911A
:101220008F912F910F900BBE0F900FBE0F901F90BC
:1012300018958081F2CF1F920F920FB60F92112452
:101240002F933F938F939F93AF93BF938091950775
:1012500090919607A0919707B091980730918807D1
:1012600023E0230F2D3758F50196A11DB11D2093C2
:1012700088078093950790939607A0939707B0935C
:1012800098078091890790918A07A0918B07B09168
:101290008C070196A11DB11D8093890790938A0741
:1012A000A0938B07B0938C07BF91AF919F918F91C3
:1012B0003F912F910F900FBE0F901F90189526E829
:1012C000230F0296A11DB11DD2CF1F920F920FB610
:1012D0000F9211240BB60F922F933F934F935F936E
:1012E0006F937F938F939F93AF93BF93EF93FF93EE
:1012F000E0918F07F0919007309749F0A685B78568
:101300008585968D91FF16C09C918923B1F4FF913C
:10131000EF91BF91AF919F918F917F916F915F916D
:101320004F913F912F910F900BBE0F900FBE0F90DA
:101330001F9018959C91892351F7A389B4899C919A
:101340008589809589238C93868997890197F1F700
:10135000608D718DA685B785558538E020E0CB017D
:101360000197F1F7822F90E095958795282F4C9162
:10137000452309F02068315091F7868D81FD209535
:1013800080918E0790E001968F73992730918D0799
:10139000381799F0A0918E07B0E0A85BB84F2C9356
:1013A00080938E07828D938D0197F1F7A389B4897D
:1013B0008C919589892B8C93AACF868D8160868F9D
:1013C000F1CF10929C0710929B0788EE93E0A0E06B
:1013D000B0E080939D0790939E07A0939F07B093E2
:1013E000A00724E232E030939A072093990725EC76
:1013F00030E03093A6072093A50724EC30E030932B
:10140000A8072093A70720EC30E03093AA07209389
:10141000A90721EC30E03093AC072093AB0722EC16
:1014200030E03093AE072093AD0726EC30E03093E8
:10143000B0072093AF071092B2071092B307109233
:10144000B4071092B50727E0209372082BE0209391
:101450007308EDE4F2E0E491E0937408E7E0F2E071
:10146000E491E093750840E85EE360E070E040934B
:101470007A0850937B0860937C0870937D081092E3
:101480005108109250088093520890935308A093EB
:101490005408B093550882E492E090934F088093EB
:1014A0004E08109265081092640810926708109216
:1014B0006608109269081092680810926B081092E2
:1014C0006A0860916C086E7F6D7F60936C0866950A
:1014D000617081E0682786E00E94EE0261E086E0AC
:1014E0000E947A03ECE4F2E0E491E0935E08E6E027
:1014F000F2E0E491F0E0EE0FFF1FEA51FE4F85911C
:1015000094919093600880935F0860E085E00E946A
:101510007A0380916C0881FD04C061E085E00E943F
:10152000EE0285E080935A08EBE4F2E0E491E09368
:101530005B08E5E0F2E0E491F0E0EE0FFF1FE4531A
:10154000FE4F8591949190935D0880935C08109272
:1015500039081092380886E392E090933708809318
:1015600036088DE080933A088FEF80933B088CE03B
:1015700080933C088BE080933D088AE080933E088E
:1015800089E080933F0888E08093400810924108EA
:101590001092420810924308109244081092450895
:1015A00061E080E10C948F06CF93DF93CDB7DEB777
:1015B0002C970FB6F894DEBF0FBECDBF789484B5DC
:1015C000826084BD84B5816084BD85B5826085BD3F
:1015D00085B5816085BD80916E00816080936E00CD
:1015E00010928100809181008260809381008091BF
:1015F0008100816080938100809180008160809370
:1016000080008091B10084608093B1008091B0002F
:1016100081608093B00080919100826080939100FE
:101620008091910081608093910080919000816011
:10163000809390008091A10082608093A1008091AE
:10164000A10081608093A1008091A00081608093BF
:10165000A00080912101826080932101809121016D
:10166000816080932101809120018160809320011D
:1016700080917A00846080937A0080917A00826001
:1016800080937A0080917A00816080937A008091C3
:101690007A00806880937A001092C10062E080E254
:1016A0000E948F0662E0809172080E947A032FB731
:1016B000F8948091950790919607A0919707B09123
:1016C00098072FBF805D9740A109B10980937608E4
:1016D00090937708A0937808B093790887E3809374
:1016E0007F0810926908109268081092670810929B
:1016F000660810926508109264088DE991E0909355
:101700006B0880936A0880915A0896EF980F94307E
:1017100048F02EEC280F243028F022EC280F283037
:1017200008F061C02DEB30E0309365082093640829
:101730002BE931E030936708209366082CE231E012
:101740003093690820936808943050F02EEC280FED
:10175000243030F022EC280FF0E0E0E0283010F4E4
:10176000E8E6F0E02081943028F032EC380F383091
:1017700008F43CC131E0232B943048F09EEC980FE4
:10178000943028F08E53F0E0E0E0883010F4E8E682
:10179000F0E0208320915A0836EF320F343008F4FD
:1017A00027C18EEC820F843008F422C182EC820FB4
:1017B000883008F020C18DE690E090936208809315
:1017C0006108343008F01AC12650330B81E001C0A3
:1017D000880F2A95EAF78093630880916A089091B0
:1017E0006B080197F1F78091680890916908892B3F
:1017F00049F1E0918F07F091900728E0EE34F2076D
:1018000009F1309739F0A389B4899C918589809535
:1018100089238C9380916C088E7F80936C08109242
:101820008E0710928D078EE498E090939007809336
:101830008F07E0916108F0916208808190916308C0
:10184000892B8083E091A907F091AA0782E0808329
:10185000E091A507F091A6071082E091A707F0910B
:10186000A8078FEC80831092B107E091AD07F0914B
:10187000AE0786E08083E091AB07F091AC078081F2
:1018800080618083E091AB07F091AC078081886034
:101890008083E091AB07F091AC0780818068808302
:1018A000E091AB07F091AC0780818F7D808360E091
:1018B00086E30E947A0360E087E30E947A0360E097
:1018C00088E30E947A0360E08AE30E947A0360E082
:1018D0008BE30E947A0360E08CE30E947A0360E06D
:1018E0008DE30E947A0360E08EE30E947A036FE545
:1018F00072E086E398E00E94B90868EE73E080E049
:1019000090E00E94F8030E94870686E30E94B603D7
:101910007C0186E30E94B60387E30E94B6038C0134
:1019200087E30E94B60388E30E94B6039C878B87F7
:1019300088E30E94B60389E30E94B6031C0189E391
:101940000E94B6038AE30E94B6039A8389838AE3DE
:101950000E94B6038BE30E94B6039C838B838BE3C8
:101960000E94B6038CE30E94B60397FD01969C018A
:10197000359527953E832D838CE30E94B6038DE336
:101980000E94B60397FD01969C01359527953887EF
:101990002F838DE30E94B6038EE30E94B603BC0141
:1019A000990F880B990B0E94D61326E636E648E07D
:1019B00051E40E942C130E949E134B017A87698781
:1019C0008EE30E94B6030E942A04882351F080917E
:1019D00073088B3030F08D3030F18551823008F44F
:1019E00052C060E070E080EC9FE739C034E0C3CEC5
:1019F0008BE690E0E2CE90E080E0DFCE88E022331C
:101A000009F4E9CE84E0233309F4E5CE82E02433FF
:101A100009F4E1CE82EC820F883018F42E53330B98
:101A2000D5CE81E0D8CE60916E0870E090E080E085
:101A30000E94D6132DEC3CEC4CEC5DE30E948B1421
:101A40002B013C0160916D0870E090E080E00E9405
:101A5000D6139B01AC01C301B2010E94BB120E94CC
:101A6000A513D62E0E942A04882341F08091730882
:101A70008C3009F485C0C8F48B3081F160E070E0EF
:101A800080EC9FE753C060916D0870916E087627D7
:101A90006727762790E080E00E94D4132DEC3CEC81
:101AA0004CEC5DE30E948B14DACF8551823030F725
:101AB000C0906F086C2D70E0762F662766277F77C1
:101AC00080917008682B90E080E00E94D4132DEC88
:101AD0003CEC4CEC5DE30E948B146EC060916F088F
:101AE00070E090E080E00E94D4132B013C01C09094
:101AF0007008C7FE0AC0AC019B0160E070E080E89E
:101B00009FEB0E94BA122B013C016C2D6F7070E0AC
:101B100090E080E00E94D6132DEC3CEC4CEC5DE3B1
:101B20000E948B14A30192010E94BB120E94A51374
:101B3000C62E6D2D70E090E080E00E94D4139B01D2
:101B4000AC010E94F81481110CC06C2D70E090E083
:101B500080E00E94D4139B01AC010E94F8148823FA
:101B600079F10E94870660E085E00E942F076DE70B
:101B700072E086E398E00E94B9080E94BD02B7CEE9
:101B8000C0906F086C2D70E090E080E00E94D4134C
:101B90002B013C01609170086F7070E090E080E074
:101BA0000E94D6132DEC3CEC4CEC5DE30E948B14B0
:101BB000A30192010E94BB12C7FEB8CF9058B6CFC6
:101BC0008C2D6AE00E94FD14805D80931702905D69
:101BD000909318023FED30931B028D2D0E94FD144F
:101BE000805D80930702905D909308020E948706B3
:101BF00060E080E00E942F0760E172E086E398E0F9
:101C00000E94B90887EA92E00E94D50783E892E033
:101C10000E94D50787EA92E00E94D50769EA72E040
:101C200089E997E00E94B90860E172E089E997E0EC
:101C30000E94B90861E080E00E942F0760E072E036
:101C400086E398E00E94B90887EA92E00E94D507EF
:101C50006EEB72E089E997E00E94B90860E072E0FB
:101C600089E997E00E94B90868EE73E080E090E0AF
:101C70000E94F8030E94870660E080E00E942F0720
:101C800063ED72E086E398E00E94B90860E081E1CC
:101C90000E942F07B70186E398E00E949F0768EF34
:101CA00072E086E398E00E94B90887EA92E00E9419
:101CB000D50762EE72E089E997E00E94B908B701A2
:101CC00089E997E00E949F0767EF72E089E997E052
:101CD0000E94B90861E080E00E942F076CEF72E07B
:101CE00086E398E00E94B90861E082E10E942F0734
:101CF000B80186E398E00E949F0768EF72E086E3F0
:101D000098E00E94B90887EA92E00E94D5076CE04B
:101D100073E089E997E00E94B908B80189E997E082
:101D20000E949F0767EF72E089E997E00E94B90877
:101D300060ED77E080E090E00E94F8030E94870663
:101D400060E080E00E942F0761E273E086E398E0A4
:101D50000E94B90860E082E10E942F076B857C85B4
:101D600086E398E00E949F0768EF72E086E398E0C0
:101D70000E94B90887EA92E00E94D50761E373E008
:101D800089E997E00E94B9086B857C8589E997E02D
:101D90000E949F0767EF72E089E997E00E94B90807
:101DA00061E080E00E942F0766E473E086E398E03C
:101DB0000E94B90861E081E10E942F07B10186E32A
:101DC00098E00E949F0768EF72E086E398E00E9427
:101DD000B90887EA92E00E94D50765E573E089E9D2
:101DE00097E00E94B908B10189E997E00E949F0736
:101DF00067EF72E089E997E00E94B90860ED77E04B
:101E000080E090E00E94F8030E94870660E080E096
:101E10000E942F076AE673E086E398E00E94B90803
:101E200060E081E10E942F0769817A8186E398E072
:101E30000E949F0768EF72E086E398E00E94B9086D
:101E400087EA92E00E94D50769E773E089E997E0A5
:101E50000E94B90869817A8189E997E00E949F0709
:101E600067EF72E089E997E00E94B908C701800F27
:101E7000911F2B853C85820F931F820D931D298115
:101E80003A81820F931F65E070E00E940915072ECA
:101E9000000C880B990B0E94D6132B013C0160E0CB
:101EA00080E00E942F076EE873E086E398E00E94CE
:101EB000B90860E081E10E942F07B301A20186E327
:101EC00098E00E94E80787EA92E00E94D5076EE852
:101ED00073E089E997E00E94B908B301A20189E99A
:101EE00097E00E94E80761E080E00E942F0767EA20
:101EF00073E086E398E00E94B90861E083E10E9404
:101F00002F076D817E8186E398E00E949F076FEC2A
:101F100073E086E398E00E94B90887EA92E00E94A5
:101F2000D50769EB73E089E997E00E94B9086D81F4
:101F30007E8189E997E00E949F076EEC73E089E952
:101F400097E00E94B90868EE73E080E090E00E949C
:101F5000F8030E94870660E080E00E942F0766ED8C
:101F600073E086E398E00E94B90860E083E10E9494
:101F70002F076F81788586E398E00E949F076FECBA
:101F800073E086E398E00E94B90887EA92E00E9435
:101F9000D50767EE73E089E997E00E94B9086F8181
:101FA000788589E997E00E949F076EEC73E089E9E4
:101FB00097E00E94B90861E080E00E942F076CEF73
:101FC00073E086E398E00E94B90861E08CE00E942B
:101FD0002F07B40186E398E00E949F076AE074E04F
:101FE00086E398E00E94B90887EA92E00E94D5074C
:101FF0006EE074E089E997E00E94B908B40189E9CC
:1020000097E00E949F076AE074E089E997E00E94E8
:10201000B90860ED77E080E090E00E94F8030E944C
:10202000870663E274E086E398E00E94B90860E006
:1020300084E10E942F076B817C8186E398E00E94F7
:102040009F0769E374E086E398E00E94B90887EA95
:1020500092E00E94D50763E274E089E997E00E946C
:10206000B9086B817C8189E997E00E949F0768E34A
:1020700074E089E997E00E94B90868EE73E080E0B7
:1020800090E00E94F8030E9487063EE5E31631E0E7
:10209000F3060CF46CC160E080E00E942F076CE353
:1020A00074E086E398E00E94B90887EA92E00E9413
:1020B000D50787EA92E00E94D50786E594E00E9462
:1020C000D50787EA92E00E94D5076CE374E089E9BE
:1020D00097E00E94B908043F11400CF460C161E030
:1020E00080E00E942F076FE874E086E398E00E948A
:1020F000B90887EA92E00E94D50787EA92E00E9439
:10210000D5076FE874E089E997E00E94B90860EDAF
:1021100077E080E090E00E94F8030E9487062B851C
:102120003C852C3231400CF452C160E080E00E94CA
:102130002F0762EC74E086E398E00E94B90887EA12
:1021400092E00E94D50787EA92E00E94D50762ECF0
:1021500074E089E997E00E94B90880919107909115
:102160009207019690939207809391079AEF291610
:1021700031040CF444C161E080E00E942F0765EF58
:1021800074E086E398E00E94B90865EF74E089E99D
:1021900097E00E94B90860ED77E080E090E00E944F
:1021A000F8030E94870629813A81243F31400CF4CC
:1021B0003EC187EA92E00E94D50787EA92E00E943A
:1021C000D50766E275E089E997E00E94B908809139
:1021D00093079091940701969093940780939307A7
:1021E0002D813E8161E080E0243231050CF038C160
:1021F0000E942F0764E575E086E398E00E94B90825
:1022000087EA92E00E94D50787EA92E00E94D5070C
:1022100064E575E089E997E00E94B9088091930729
:10222000909194070196909394078093930760EDA3
:1022300077E080E090E00E94F8030E9487068F819B
:10224000988560E0C3970CF022C180E00E942F07C0
:102250006AE975E086E398E00E94B90887EA92E0AF
:102260000E94D50787EA92E00E94D5076AE975E0E7
:1022700089E997E00E94B9088091930790919407AB
:102280000196909394078093930729853A8561E09E
:1022900080E0293231050CF012C10E942F076EED4B
:1022A00075E086E398E00E94B90887EA92E00E9410
:1022B000D50787EA92E00E94D50760EF75E089E9CB
:1022C00097E00E94B9088091930790919407019636
:1022D000909394078093930760ED77E080E090E01F
:1022E0000E94F8030E9487068B819C81803991406F
:1022F0000CF40CC1809191079091920760E00197D6
:1023000009F0F0C080E00E942F0767E176E086E3E5
:1023100098E00E94B90887EA92E00E94D50787EA10
:1023200092E00E94D50767E176E089E997E00E9494
:10233000B90868EE73E080E090E00E94F8030E9424
:1023400087068091930790919407089709F0E9C058
:1023500067E676E086E398E00E94B90887EA92E0B3
:102360000E94D5076EE976E089E997E004CC87EA18
:1023700092E00E94D50787EA92E00E94D50768E7BD
:1023800074E089E997E00E94B908809193079091E1
:102390009407019690939407809393079CCE87EAC5
:1023A00092E00E94D50787EA92E00E94D5076AEA88
:1023B00074E089E997E00E94B908809193079091B1
:1023C000940701969093940780939307A0CE87EA91
:1023D00092E00E94D50787EA92E00E94D5076DED52
:1023E00074E089E997E00E94B90880919307909181
:1023F000940701969093940780939307B7CE87EA4A
:1024000092E00E94D50787EA92E00E94D5076FE02C
:1024100075E089E997E00E94B9088091930790914F
:10242000940701969093940780939307B4CE61E04C
:1024300080E00E942F0760E475E086E398E00E9448
:10244000B90887EA92E00E94D50787EA92E00E94E5
:10245000D50760E475E089E997E00E94B908C0CE2D
:102460000E942F0760E775E086E398E00E94B908B4
:1024700087EA92E00E94D50787EA92E00E94D5079A
:1024800060E775E089E997E00E94B908D0CE80E066
:102490000E942F0765EB75E086E398E00E94B9087B
:1024A00087EA92E00E94D50787EA92E00E94D5076A
:1024B00065EB75E089E997E00E94B908E6CE0E94D5
:1024C0002F0762E076E086E398E00E94B90887EA89
:1024D00092E00E94D50787EA92E00E94D50762E069
:1024E00076E0EDCE80E00E942F0765E376E086E39C
:1024F00098E00E94B90887EA92E00E94D50787EA2F
:1025000092E00E94D50765E376E00FCF87EA92E07C
:102510000E94D50787EA92E00E94D5076EE476E034
:1025200004CF6DED76E086E398E00E94B90887EA73
:1025300092E00E94D5076EE077E016CF82E492E049
:1025400090934F0880934E0880918F079091900749
:102550008E54984071F4E0916108F0916208908186
:102560008091630880958923808310929007109250
:102570008F0708955058BB27AA270E94D2120C94A7
:102580004C140E943E1438F00E94451420F039F497
:102590009F3F19F426F40C943B140EF4E095E7FBEE
:1025A0000C943514E92F0E945D1458F3BA17620792
:1025B00073078407950720F079F4A6F50C947F142F
:1025C0000EF4E0950B2EBA2FA02D0B01B90190014E
:1025D0000C01CA01A0011124FF27591B99F0593F92
:1025E00050F4503E68F11A16F040A22F232F342FDA
:1025F0004427585FF3CF469537952795A795F04028
:102600005395C9F77EF41F16BA0B620B730B840B3C
:10261000BAF09150A1F0FF0FBB1F661F771F881FF4
:10262000C2F70EC0BA0F621F731F841F48F487954C
:1026300077956795B795F7959E3F08F0B0CF93953E
:10264000880F08F09927EE0F9795879508950E94B7
:10265000111408F481E008950E9440130C944C1466
:102660000E94451458F00E943E1440F029F45F3F48
:1026700029F00C94351451110C9480140C943B14D3
:102680000E945D1468F39923B1F3552391F3951BD0
:10269000550BBB27AA2762177307840738F09F5F83
:1026A0005F4F220F331F441FAA1FA9F335D00E2EF0
:1026B0003AF0E0E832D091505040E695001CCAF75D
:1026C0002BD0FE2F29D0660F771F881FBB1F261720
:1026D00037074807AB07B0E809F0BB0B802DBF01F7
:1026E000FF2793585F4F3AF09E3F510578F00C94C6
:1026F00035140C9480145F3FE4F3983ED4F3869530
:1027000077956795B795F7959F5FC9F7880F911DE6
:102710009695879597F90895E1E0660F771F881FD2
:10272000BB1F621773078407BA0720F0621B730B85
:10273000840BBA0BEE1F88F7E09508950E94A5134D
:102740006894B1110C94801408950E94651488F067
:102750009F5798F0B92F9927B751B0F0E1F0660F65
:10276000771F881F991F1AF0BA95C9F714C0B130A6
:1027700091F00E947F14B1E008950C947F14672FAC
:10278000782F8827B85F39F0B93FCCF386957795D5
:102790006795B395D9F73EF49095809570956195BE
:1027A0007F4F8F4F9F4F0895E89409C097FB3EF4E9
:1027B00090958095709561957F4F8F4F9F4F99238E
:1027C000A9F0F92F96E9BB279395F695879577950C
:1027D0006795B795F111F8CFFAF4BB0F11F460FFCC
:1027E0001BC06F5F7F4F8F4F9F4F16C0882311F024
:1027F00096E911C0772321F09EE8872F762F05C038
:10280000662371F096E8862F70E060E02AF09A95D2
:10281000660F771F881FDAF7880F9695879597F9C7
:102820000895990F0008550FAA0BE0E8FEEF161661
:102830001706E807F907C0F012161306E407F507B4
:1028400098F0621B730B840B950B39F40A2661F028
:10285000232B242B252B21F408950A2609F4A140CB
:10286000A6958FEF811D811D089597F99F6780E8D8
:1028700070E060E008959FEF80EC089500240A94D2
:102880001616170618060906089500240A9412164B
:102890001306140605060895092E0394000C11F47E
:1028A000882352F0BB0F40F4BF2B11F460FF04C02B
:1028B0006F5F7F4F8F4F9F4F089557FD9058440F84
:1028C000551F59F05F3F71F04795880F97FB991F8F
:1028D00061F09F3F79F0879508951216130614064C
:1028E000551FF2CF4695F1DF08C0161617061806D9
:1028F000991FF1CF86957105610508940895E894B4
:10290000BB2766277727CB0197F908950E941114FA
:1029100008F48FEF08950E949E140C944C140E94AA
:102920003E1438F00E94451420F0952311F00C94C9
:1029300035140C943B1411240C9480140E945D14E3
:1029400070F3959FC1F3950F50E0551F629FF00102
:10295000729FBB27F00DB11D639FAA27F00DB11D1B
:10296000AA1F649F6627B00DA11D661F829F2227A4
:10297000B00DA11D621F739FB00DA11D621F839F2B
:10298000A00D611D221F749F3327A00D611D231F01
:10299000849F600D211D822F762F6A2F11249F574F
:1029A00050409AF0F1F088234AF0EE0FFF1FBB1F52
:1029B000661F771F881F91505040A9F79E3F510511
:1029C00080F00C9435140C9480145F3FE4F3983E2F
:1029D000D4F3869577956795B795F795E7959F5FBB
:1029E000C1F7FE2B880F911D9695879597F908954D
:1029F0000E941114880B990B0895991B79E004C06B
:102A0000991F961708F0961B881F7A95C9F780952D
:102A1000089597FB072E16F4009407D077FD09D090
:102A20000E94471507FC05D03EF4909581959F4F75
:102A30000895709561957F4F0895A1E21A2EAA1B03
:102A4000BB1BFD010DC0AA1FBB1FEE1FFF1FA2175E
:102A5000B307E407F50720F0A21BB30BE40BF50B5B
:102A6000661F771F881F991F1A9469F760957095E4
:102A7000809590959B01AC01BD01CF010895EE0FAB
:102A8000FF1F881F8BBF0790F691E02D1994AA1B9A
:102A9000BB1B51E107C0AA1FBB1FA617B70710F049
:102AA000A61BB70B881F991F5A95A9F7809590957B
:102AB000BC01CD01089511E0C7E4D1E000E006C0FB
:102AC000802FFE010E943F152196011DC834D107B9
:0A2AD00080E00807A9F7F894FFCF93
:102ADA0052482020203D2030302E30202520200052
:102AEA0054656D70203D2030302E30204320200068
:102AFA00000000005002BA01E7019D021802F60127
:102B0A000A02000000003E07BA01E805E7050000D6
:102B1A0000005205BA01E8055105AE05C60539059A
:102B2A000D0A006E616E00696E66006F766600417E
:102B3A006972205175616C697479204D6F6E697480
:102B4A006F72696E672053797374656D004572728E
:102B5A006F72002A2A2F2F2F2F2F2F2F2F2F2F2F31
:102B6A002F2F2F2F2F2F2F2F2F2F2F2F2F2F2F2F6B
:102B7A002F2F2F2F2F2A2A200054656D706572611E
:102B8A0074757265202020202020203A2000487584
:102B9A006D6964697479202020202020202020205B
:102BAA003A2000416D6F756E74206F6620434F3A6C
:102BBA002000416D6F756E74206F6620434F202090
:102BCA00202020203A20002050504D00416D6F7582
:102BDA006E74206F6620434F323A2000416D6F7544
:102BEA006E74206F6620434F3220202020203A2026
:102BFA0000416D6F756E74206F6620534F323A2014
:102C0A0000416D6F756E74206F6620534F3220201D
:102C1A002020203A2000416D6F756E74206F662067
:102C2A004E4F3A2000416D6F756E74206F66204ECC
:102C3A004F2020202020203A2000416D6F756E74AD
:102C4A00206F66204F323A2000416D6F756E7420F6
:102C5A006F66204F322020202020203A2000416930
:102C6A00722051756C69747920496E6465782028E0
:102C7A00415149293A2000416D6F756E74206F6683
:102C8A0020504D322E353A2000416D6F756E7420FA
:102C9A006F6620504D322E352020203A20002075B4
:102CAA00672F6D5E3300416D6F756E74206F6620FD
:102CBA00504D31303A2000416D6F756E74206F6649
:102CCA0020504D3130202020203A20004E6F697369
:102CDA0065204C6576656C3A2000206442004E6F90
:102CEA00697365204C6576656C20202020202020A1
:102CFA003A2000506F736962696C697479206F6653
:102D0A00207261696E3A2000206D6D00416D6F7509
:102D1A006E74206F6620434F20697320766572793E
:102D2A002068696768002F2F2F2F2F2F2F2F2F2F03
:102D3A002F2F2F2F2F2F2F2F2F2F2F2F2F2F2F2F99
:102D4A002F2F2F2F2F2F2000416D6F756E74206F3C
:102D5A006620434F20697320737461626C65004179
:102D6A006D6F756E74206F6620434F322069732031
:102D7A0076657279206869676800416D6F756E744F
:102D8A00206F6620434F3220697320737461626C2E
:102D9A006500416D6F756E74206F6620534F322047
:102DAA0069732076657279206869676800416D6F7A
:102DBA00756E74206F6620534F32206973207374C6
:102DCA0061626C6500416D6F756E74206F66204E8E
:102DDA004F206973207665727920686967680041B7
:102DEA006D6F756E74206F66204E4F206973207365
:102DFA007461626C6500416D6F756E74206F662038
:102E0A004F32206973207665727920476F6F6400AC
:102E1A00416D6F756E74206F66204F322069732082
:102E2A004C6F7700416D6F756E74206F6620504D40
:102E3A00322E35206973205374616E6461726400A6
:102E4A00504D322E35206C6576656C20556E68655E
:102E5A00616C74687920666F722073656E73617431
:102E6A006976652047726F757000416D6F756E7473
:102E7A00206F6620504D3130206973205374616E83
:102E8A006461726400504D3130206C6576656C2047
:102E9A00556E6865616C74687920666F7220736517
:102EAA006E7361746976652047726F75700046614A
:102EBA00696E74204C6576656C204E6F6973650087
:102ECA005061696E74204C6576656C204E6F69732B
:102EDA0065004D6F646572617465204C6576656C3A
:102EEA00204E6F69736500486967682070726F6267
:102EFA006162696C697479206F6620416369642034
:102F0A007261696E00486967682070726F626162F7
:102F1A00696C697479206F66207261696E004C650C
:102F2A0073732070726F626162696C697479206F61
:102F3A0066207261696E0054686973204172656126
:102F4A002076657265204D756368205375697461D2
:102F5A00626C6520466F7220456475636174696F9F
:102F6A006E616C20496E73746974757465002A2ADF
:102F7A002A2A5468697320417265612076657265F0
:102F8A00204D756368205375697461626C652046CB
:102F9A006F7220456475636174696F6E616C204954
:102FAA006E737469747574652A2A2A2A00546869CA
:102FBA00732041726561206E6F7420537569746164
:102FCA00626C6520466F7220456475636174696F2F
:102FDA006E616C20496E73746974757465002A2A6F
:102FEA002A2A546869732041726561206E6F7420C1
:102FFA005375697461626C6520466F722045647509
:10300A00636174696F6E616C20496E73746974755B
:08301A0074652A2A2A2A00002D
:00000001FF
