:020000040000FA
:100000000C9448010C9479010C9479010C947901B9
:100010000C9479010C9479010C9479010C94790178
:100020000C9479010C9465090C9465090C9465098C
:100030000C9479010C9479010C9479010C94790158
:100040000C9479010C9479010C9479010C94790148
:100050000C9479010C9479010C9479010C941B098E
:100060000C9479010C94E5080C94BB080C9479016C
:100070000C9479010C9479010C9479010C94790118
:100080000C9479010C9479010C9479010C94790108
:100090000C9479010C9479010C9479010C947901F8
:1000A0000C9479010C9479010C9479010C947901E8
:1000B0000C9479010C9479010C9479010C947901D8
:1000C0000C9479010C9479010C9479010C947901C8
:1000D0000C9479010C9479010C9479010C947901B8
:1000E0000C9479010C94AE050C9462030C945205A7
:1000F0000C9435030C943D030C94E7010C94E10936
:100100000C944A030C9458030C94F6010C94440389
:100110000C946A030C9439050C9439030C94540321
:100120000C9470030C94C6050C949D020C94180258
:100130000C94BA010C9474030C9451050C94E705CB
:100140000C944E030C9441030C949E120C94500298
:100150000C945C030C941E030C94E8050C9423038C
:100160000C940A020C943E070C94660300002100D4
:10017000240027002A002D00300033000101000078
:10018000040107010A0100000A0B02090C0D0E0808
:100190000703040100000000000000000000000050
:1001A000000000000000000000000000000000004F
:1001B000000012111000000000000000000000000C
:1001C000000000000000000000000000000020000F
:1001D0002300260029002C002F003200000100001F
:1001E00003010601090100002200250028002B0060
:1001F0002E003100340002010000050108010B014E
:1002000005050505070508080808020202020A0A92
:1002100008080404040401010101010101010303B0
:10022000030303030303040707070C0C0C0C0C0C5B
:100230000C0C0202020206060606060606060B0B58
:100240000B0B0B0B0B0B0102102020080810204099
:10025000102040800201020108040201010204088A
:100260001020408080402010080402018004020118
:100270008040201008040201080402010102040861
:10028000102040800102040810204080E1099E12E5
:1002900011241FBECFEFD1E2DEBFCDBF00E00CBF07
:1002A00017E0A0E0B2E0EAEDFAE200E00BBF02C026
:1002B00007900D92A834B107D9F728E0A8E4B7E079
:1002C00001C01D92A038B207E1F711E0C7E4D1E008
:1002D00000E006C021970109802FFE010E943F1512
:1002E000C634D10780E00807A9F70E94D40A0C940D
:1002F0005B150C940000CF92DF92EF92FF92CF93A8
:10030000DF93B0917408A0E08111AB2F8091750844
:1003100090E0880F991FAC0144535E4FC0907A085B
:10032000D0907B08E0907C08F0907D0830E020E0E1
:10033000FA01C591D491E881B90190E080E0EB2306
:10034000EA130AC02F5F3F4F6C157D058E059F0590
:1003500078F36FEF7FEFCB01DF91CF91FF90EF90BC
:10036000DF90CF900895DC01ED91FC910190F08138
:10037000E02D1994AF92BF92CF92DF92EF92FF924D
:100380000F931F93CF93DF936C017B018B01040FBD
:10039000151FEB015E01AE18BF08C017D10759F059
:1003A0006991D601ED91FC910190F081E02DC6019B
:1003B0001995892B79F7C501DF91CF911F910F9185
:1003C000FF90EF90DF90CF90BF90AF900895FC0129
:1003D000538D448D252F30E0842F90E0821B930BAA
:1003E000541710F0CF96089501970895FC01918D50
:1003F000828D981761F0A28DAE0FBF2FB11D5D9653
:100400008C91928D9F5F9F73928F90E008958FEFF4
:100410009FEF0895FC01918D828D981731F0828DA8
:10042000E80FF11D858D90E008958FEF9FEF0895FF
:10043000FC01918D228D892F90E0805C9F4F821B63
:1004400091098F739927089589E997E00E9418020E
:1004500021E0892B09F420E0822F0895FC01A48D6E
:10046000A80FB92FB11DA35ABF4F2C91848D90E0D6
:1004700001968F739927848FA689B7892C93A089B9
:10048000B1898C91837080648C93938D848D981343
:1004900006C00288F389E02D80818F7D80830895D6
:1004A000EF92FF920F931F93CF93DF93EC0181E0C4
:1004B000888F9B8D8C8D98131AC0E889F98980816B
:1004C00085FF15C09FB7F894EE89FF896083E8899E
:1004D000F98980818370806480839FBF81E090E090
:1004E000DF91CF911F910F91FF90EF900895F62E1D
:1004F0000B8D10E00F5F1F4F0F731127E02E8C8DB7
:100500008E110CC00FB607FCFACFE889F9898081FB
:1005100085FFF5CFCE010E942E02F1CFEB8DEC0FBF
:10052000FD2FF11DE35AFF4FF0829FB7F8940B8F18
:10053000EA89FB8980818062CFCFCF93DF93EC0182
:10054000888D8823B9F0AA89BB89E889F9898C91BB
:1005500085FD03C0808186FD0DC00FB607FCF7CF77
:100560008C9185FFF2CF808185FFEDCFCE010E9477
:100570002E02E9CFDF91CF91089580E090E0892BA2
:1005800029F00E94240281110E94000080E090E086
:10059000892B49F080E090E0892B29F00E9400002F
:1005A00081110E94000080E090E0892B49F080E0FA
:1005B00090E0892B29F00E94000081110E94000028
:1005C00080E090E0892B49F080E090E0892B29F0D1
:1005D0000E94000081110C9400000895282F30E043
:1005E000F901EA57FE4F9491F901EA5BFD4F4491FE
:1005F00020503E4FF9012491222309F435C099235C
:1006000011F191509231F8F4E92FF0E08827E45F7E
:10061000FC4F8F4F0C943F153D0341031E033503E0
:100620003903230344034A034E03540358035C0372
:100630006203660323036A037003740380918000DE
:100640008F7780938000E22FF0E0EE0FFF1FEA51DA
:10065000FE4FA591B4918FB7F894EC91611148C009
:1006600040954E234C938FBF0895809180008F7DDD
:10067000E8CF80918000877FE4CF84B58F7784BDF9
:10068000E2CF84B58F7DFBCF8091B0008F778093D0
:10069000B000D9CF8091B0008F7DF9CF80919000CC
:1006A0008F7780939000CFCF809190008F7DF9CF8E
:1006B00080919000877FF5CF8091A0008F77809305
:1006C000A000C1CF8091A0008F7DF9CF8091A000C4
:1006D000877FF5CF809120018F7780932001B3CF62
:1006E000809120018F7DF9CF80912001877FF5CF08
:1006F0004E2BB8CFCF93DF9390E0FC01EA5BFD4F28
:10070000249180509E4FFC0184918823C9F090E091
:10071000880F991FFC01E459FE4FA591B491FC018B
:10072000EA51FE4FC591D49161110DC09FB7F89465
:100730008C91209582238C938881282328839FBFC6
:10074000DF91CF910895623051F49FB7F8943C91B6
:10075000822F809583238C93E8812E2BEFCF8FB748
:10076000F894EC912E2B2C938FBFEACF863308F0B0
:10077000865320917B00982F9870277F922B90931F
:100780007B008770806480937C0080917A00806415
:1007900080937A0080917A0086FDFCCF809178006A
:1007A0009091790008953FB7F894809189079091CE
:1007B0008A07A0918B07B0918C0726B5A89B05C02E
:1007C0002F3F19F00196A11DB11D3FBFBA2FA92FD0
:1007D000982F8827BC01CD01620F711D811D911DCD
:1007E00042E0660F771F881F991F4A95D1F7089539
:1007F0008F929F92AF92BF92CF92DF92EF92FF9231
:100800004B015C010E94D3036B017C010E94D30366
:100810006C197D098E099F09683E73408105910519
:10082000A8F321E0821A9108A108B10888EEC80E49
:1008300083E0D81EE11CF11C81149104A104B104D1
:1008400029F7FF90EF90DF90CF90BF90AF909F90EF
:100850008F900895CF92DF92EF92FF920F931F93A4
:10086000CF93DF93CDB7DEB7C054D1400FB6F89425
:10087000DEBF0FBECDBF2FB7F89480919507909142
:100880009607A0919707B09198072FBF40917608DF
:100890005091770860917808709179088C019D01DA
:1008A000041B150B260B370BB901A801403D57401F
:1008B0006105710590F480917E08C05CDE4F0FB633
:1008C000F894DEBF0FBECDBFDF91CF911F910F9186
:1008D000FF90EF90DF90CF900895809376089093EB
:1008E0007708A0937808B093790810927108109255
:1008F000700810926F0810926E0810926D0862E0F6
:10090000809172080E947A0361E070E080E090E0DC
:100910000E94F80361E0809172080E947A0360E00F
:10092000809172080E94EE02809173088551823096
:1009300020F58BE291E10197F1F762E08091720876
:100940000E947A0380917F0890E08230910538F010
:10095000880F991F880F991F05970197F1F7F89451
:1009600080E00E947B016F3F7F4F8F4F9F4F61F46C
:1009700010927E08789480E0A0CF64E170E080E07F
:1009800090E00E94F803D9CF81E00E947B016F3F85
:100990007F4F8F4F9F4F61F38E010F5F1F4F6E018F
:1009A0008FEBC81A8EEFD80A780180E00E947B0195
:1009B000F701608371838283938381E00E947B01CE
:1009C000F7016483758386839783F8E0EF0EF11C4B
:1009D000EC14FD0451F7789430E020E0F801C08079
:1009E000D180E280F3804481558166817781FFEF79
:1009F000CF16DF06EF06FF0631F04F3F8FEF5807A7
:100A00006807780719F410927E08B5CFF90183E0E2
:100A1000F595E7958A95E1F7E359F74F8081880FBF
:100A2000C416D506E606F70610F180832F5F3F4F08
:100A3000085F1F4F2832310589F6409171082091D7
:100A40006D0880916E08280F3327331F80916F083F
:100A5000280F311D80917008820F932F911D9927C7
:100A60004817190681F681E080937E0826CF8160C1
:100A7000DCCF20918F07309190072817390771F448
:100A800090918D0780918E07981741F0E0918D0726
:100A9000F0E0E85BF84F808190E008958FEF9FEFE2
:100AA00008950895EF92FF920F931F93CF93DF93D2
:100AB000DC015C96ED90FC905D97E114F10479F413
:100AC00081E090E013969C938E93129790E080E0E3
:100AD000DF91CF911F910F91FF90EF900895519664
:100AE000ED91FC91529750968C915097982F90953C
:100AF0000FB75E962C915E97122F127021FD6095B4
:100B0000F8942081112319F1282B2083E7012197E4
:100B1000F1F728E0462F50E0308160FF1AC0382BF3
:100B20003083E7012197F1F7BA0175956795215058
:100B300089F7112381F08081892380830FBF5C9620
:100B40008D919C910197F1F781E090E0C1CF29232D
:100B5000DCCF3923E5CF9081892BEFCF20918F0710
:100B6000309190072817390771F480918E072091F2
:100B70008D0790E0805C9F4F821B910960E470E0DC
:100B80000E940915089590E080E0089520918F0754
:100B90003091900728173907B9F490918D0780910B
:100BA0008E07981789F0E0918D07F0E0E85BF84F29
:100BB000808120918D0730E02F5F3F4F2F733327C7
:100BC00020938D0790E008958FEF9FEF089508958B
:100BD00090E080E00895CF93DF93EC0160E08E8198
:100BE0000E94EE0261E08E810E94EE0260E08E8142
:100BF0000E94EE028BE891E00197F1F7DF91CF912F
:100C00000895CF92DF92EF92FF920F931F93CF93AD
:100C1000DF936C017C0187E0E80EF11CD0E0C0E0BE
:100C2000062F10E0B8010C2E02C0759567950A9446
:100C3000E2F76170F70181917F010E94EE02219637
:100C4000C430D10579F7C601DF91CF911F910F9183
:100C5000FF90EF90DF90CF900C94EB05CF92DF9256
:100C6000EF92FF920F931F93CF93DF93EC01F62E39
:100C7000642F8C810E94EE028D818F3F19F060E01D
:100C80000E94EE020F2D10E08F8584FF25C06E01BB
:100C900087E0C80ED11CF12CE12CB8010E2C02C04B
:100CA000759567950A94E2F76170F60181916F017D
:100CB0000E94EE02FFEFEF1AFF0A88E0E816F10447
:100CC00061F7CE01DF91CF911F910F91FF90EF90CF
:100CD000DF90CF900C94EB05B80184E07595679593
:100CE0008A95E1F7CE010E9401066F2DCE01DF91BA
:100CF000CF911F910F91FF90EF90DF90CF900C94C8
:100D0000010640E0682F86E398E00C942E0681E00F
:100D10000E9481068BE39FE10197F1F70895CF933D
:100D2000DF93623029F490914508986090934508CC
:100D30006093490810924A0890E490934B0880937E
:100D40004C08805C80934D0861E080913A080E94D5
:100D50007A0380913B088F3F19F061E00E947A038B
:100D600061E080913C080E947A03C6E3D8E09E01CE
:100D7000265338408091450884FD0BC084E090E004
:100D800021962817390744F461E08E810E947A0386
:100D9000EECF88E090E0F4CF8BE39DE00197F1F790
:100DA00060E080913A080E94EE0260E080913C0889
:100DB0000E94EE0280913B088F3F19F060E00E9494
:100DC000EE028091450884FD34C063E086E398E03C
:100DD0000E940106CBE4D6E4CE010197F1F763E06F
:100DE00086E398E00E9401062197F1F763E086E32D
:100DF00098E00E94010683E592E00197F1F762E036
:100E000086E398E00E9401068091450880620E9476
:100E1000810684E0809346088CE00E9481060E944F
:100E2000870682E08093470886E0DF91CF910C949B
:100E3000810680620E9481068BE496E40197F1F7B7
:100E40008091450880620E94810683E592E00197C7
:100E5000F1F78091450880620E948106D5CF90917C
:100E60004908691710F06FEF690FE62FF0E0EA5CB0
:100E7000F74F9489890F80680C94810641E00E94A5
:100E80002E0681E090E00895FB0101900020E9F733
:100E90003197AF01461B570BDC01ED91FC910280AD
:100EA000F381E02D19948F929F92AF92BF92EF92AF
:100EB000FF920F931F93CF93DF93CDB7DEB7A19728
:100EC0000FB6F894DEBF0FBECDBF7C01FA01CB0197
:100ED00019A2223008F42AE08E010F5D1F4F822EE6
:100EE000912CB12CA12CBF01A50194010E941D15CC
:100EF000F901CA016A300CF5605DD8016E938D016D
:100F0000232B242B252B79F790E080E0109721F0FC
:100F1000BD01C7010E944407A1960FB6F894DEBF39
:100F20000FBECDBFDF91CF911F910F91FF90EF903A
:100F3000BF90AF909F908F900895695CDECFCF9265
:100F4000DF92EF92FF920F931F93CF93DF936B018A
:100F5000770FEE08FF08F7FE1BC0EC016DE20E9460
:100F6000B3018C0144275527BA014C195D096E095C
:100F70007F092AE0CE010E945307800F911FDF9165
:100F8000CF911F910F91FF90EF90DF90CF90089538
:100F90002AE0B701A601DF91CF911F910F91FF9039
:100FA000EF90DF90CF900C945307CF93DF93BC0169
:100FB00089E997E00E944407EC0160E572E089E965
:100FC00097E00E9444078C0F9D1FDF91CF910895F9
:100FD0008F929F92AF92BF92CF92DF92EF92FF9249
:100FE0000F931F93CF93DF93EC016A017B01AB0159
:100FF0009601CB01B6010E94F81463E572E08111FD
:1010000026C046015701E894B7F82FEF3FEF4FE7AE
:101010005FE7C501B4010E94F81481110CC02FEFE5
:101020003FEF4FE75FE7C501B4010E94271367E573
:1010300072E0181664F02FEF3FEF4FE75FE4C7014F
:10104000B6010E94861418168CF46BE572E0CE018E
:10105000DF91CF911F910F91FF90EF90DF90CF9094
:10106000BF90AF909F908F900C9444072FEF3FEF6D
:101070004FE75FECC701B6010E94271387FDE5CF5C
:1010800020E030E0A901C701B6010E94271310E05B
:1010900000E087FF09C06DE2CE010E94B3018C0120
:1010A000F7FAF094F7F8F0942AE037ED43EA5BE3BF
:1010B000C701B6010E94BB126B017C010E94A513FF
:1010C0004B015C010E94D4139B01AC01C701B60126
:1010D0000E94BA126B017C012AE0B501A401CE0185
:1010E0000E945307080F191F6EE2CE010E94B30140
:1010F000080F191F20E030E040E251E4C701B601BB
:101100000E948B144B015C010E94A5136B01F12C12
:10111000E12C2AE0B701A601CE010E945307080F77
:10112000191FC701B6010E94D4139B01AC01C50170
:10113000B4010E94BA1220E030E040E251E40E9483
:101140008B140E94A513AB0170E060E02AE0CE0191
:101150000E945307800F911FDF91CF911F910F9134
:10116000FF90EF90DF90CF90BF90AF909F908F90C7
:1011700008950C9444071F920F920FB60F921124FA
:101180000BB60F922F933F934F935F936F937F9381
:101190008F939F93AF93BF93EF93FF9389E997E06A
:1011A0000E942E02FF91EF91BF91AF919F918F917D
:1011B0007F916F915F914F913F912F910F900BBE57
:1011C0000F900FBE0F901F9018951F920F920FB6A1
:1011D0000F9211240BB60F922F938F939F93EF933F
:1011E000FF93E091A907F091AA078081E091AF07F2
:1011F000F091B00782FD1DC090818091B2078F5F92
:101200008F732091B307821741F0E091B207F0E0AD
:10121000E756F84F958F8093B207FF91EF919F911A
:101220008F912F910F900BBE0F900FBE0F901F90BC
:1012300018958081F2CF1F920F920FB60F92112452
:101240002F933F938F939F93AF93BF938091950775
:1012500090919607A0919707B091980730918807D1
:1012600023E0230F2D3758F50196A11DB11D2093C2
:1012700088078093950790939607A0939707B0935C
:1012800098078091890790918A07A0918B07B09168
:101290008C070196A11DB11D8093890790938A0741
:1012A000A0938B07B0938C07BF91AF919F918F91C3
:1012B0003F912F910F900FBE0F901F90189526E829
:1012C000230F0296A11DB11DD2CF1F920F920FB610
:1012D0000F9211240BB60F922F933F934F935F936E
:1012E0006F937F938F939F93AF93BF93EF93FF93EE
:1012F000E0918F07F0919007309749F0A685B78568
:101300008585968D91FF16C09C918923B1F4FF913C
:10131000EF91BF91AF919F918F917F916F915F916D
:101320004F913F912F910F900BBE0F900FBE0F90DA
:101330001F9018959C91892351F7A389B4899C919A
:101340008589809589238C93868997890197F1F700
:10135000608D718DA685B785558538E020E0CB017D
:101360000197F1F7822F90E095958795282F4C9162
:10137000452309F02068315091F7868D81FD209535
:1013800080918E0790E001968F73992730918D0799
:10139000381799F0A0918E07B0E0A85BB84F2C9356
:1013A00080938E07828D938D0197F1F7A389B4897D
:1013B0008C919589892B8C93AACF868D8160868F9D
:1013C000F1CF10929C0710929B0788EE93E0A0E06B
:1013D000B0E080939D0790939E07A0939F07B093E2
:1013E000A00724E232E030939A072093990725EC76
:1013F00030E03093A6072093A50724EC30E030932B
:10140000A8072093A70720EC30E03093AA07209389
:10141000A90721EC30E03093AC072093AB0722EC16
:1014200030E03093AE072093AD0726EC30E03093E8
:10143000B0072093AF071092B2071092B307109233
:10144000B4071092B50727E0209372082BE0209391
:101450007308EDE4F2E0E491E0937408E7E0F2E071
:10146000E491E093750840E85EE360E070E040934B
:101470007A0850937B0860937C0870937D081092E3
:101480005108109250088093520890935308A093EB
:101490005408B093550882E492E090934F088093EB
:1014A0004E08109265081092640810926708109216
:1014B0006608109269081092680810926B081092E2
:1014C0006A0860916C086E7F6D7F60936C0866950A
:1014D000617081E0682786E00E94EE0261E086E0AC
:1014E0000E947A03ECE4F2E0E491E0935E08E6E027
:1014F000F2E0E491F0E0EE0FFF1FEA51FE4F85911C
:1015000094919093600880935F0860E085E00E946A
:101510007A0380916C0881FD04C061E085E00E943F
:10152000EE0285E080935A08EBE4F2E0E491E09368
:101530005B08E5E0F2E0E491F0E0EE0FFF1FE4531A
:10154000FE4F8591949190935D0880935C08109272
:1015500039081092380886E392E090933708809318
:1015600036088DE080933A088FEF80933B088CE03B
:1015700080933C088BE080933D088AE080933E088E
:1015800089E080933F0888E08093400810924108EA
:101590001092420810924308109244081092450895
:1015A00061E080E10C948F06CF93DF93CDB7DEB777
:1015B0002C970FB6F894DEBF0FBECDBF789484B5DC
:1015C000826084BD84B5816084BD85B5826085BD3F
:1015D00085B5816085BD80916E00816080936E00CD
:1015E00010928100809181008260809381008091BF
:1015F0008100816080938100809180008160809370
:1016000080008091B10084608093B1008091B0002F
:1016100081608093B00080919100826080939100FE
:101620008091910081608093910080919000816011
:10163000809390008091A10082608093A1008091AE
:10164000A10081608093A1008091A00081608093BF
:10165000A00080912101826080932101809121016D
:10166000816080932101809120018160809320011D
:1016700080917A00846080937A0080917A00826001
:1016800080937A0080917A00816080937A008091C3
:101690007A00806880937A001092C10062E080E254
:1016A0000E948F0662E0809172080E947A032FB731
:1016B000F8948091950790919607A0919707B09123
:1016C00098072FBF805D9740A109B10980937608E4
:1016D00090937708A0937808B093790887E3809374
:1016E0007F0810926908109268081092670810929B
:1016F000660810926508109264088DE991E0909355
:101700006B0880936A0880915A0896EF980F94307E
:1017100048F02EEC280F243028F022EC280F283037
:1017200008F061C02DEB30E0309365082093640829
:101730002BE931E030936708209366082CE231E012
:101740003093690820936808943050F02EEC280FED
:10175000243030F022EC280FF0E0E0E0283010F4E4
:10176000E8E6F0E02081943028F032EC380F383091
:1017700008F43CC131E0232B943048F09EEC980FE4
:10178000943028F08E53F0E0E0E0883010F4E8E682
:10179000F0E0208320915A0836EF320F343008F4FD
:1017A00027C18EEC820F843008F422C182EC820FB4
:1017B000883008F020C18DE690E090936208809315
:1017C0006108343008F01AC12650330B81E001C0A3
:1017D000880F2A95EAF78093630880916A089091B0
:1017E0006B080197F1F78091680890916908892B3F
:1017F00049F1E0918F07F091900728E0EE34F2076D
:1018000009F1309739F0A389B4899C918589809535
:1018100089238C9380916C088E7F80936C08109242
:101820008E0710928D078EE498E090939007809336
:101830008F07E0916108F0916208808190916308C0
:10184000892B8083E091A907F091AA0782E0808329
:10185000E091A507F091A6071082E091A707F0910B
:10186000A8078FEC80831092B107E091AD07F0914B
:10187000AE0786E08083E091AB07F091AC078081F2
:1018800080618083E091AB07F091AC078081886034
:101890008083E091AB07F091AC0780818068808302
:1018A000E091AB07F091AC0780818F7D808360E091
:1018B00086E30E947A0360E087E30E947A0360E097
:1018C00088E30E947A0360E08AE30E947A0360E082
:1018D0008BE30E947A0360E08CE30E947A0360E06D
:1018E0008DE30E947A0360E08EE30E947A036FE545
:1018F00072E086E398E00E94B90868EE73E080E049
:1019000090E00E94F8030E94870686E30E94B603D7
:101910007C0186E30E94B60387E30E94B6038C0134
:1019200087E30E94B60388E30E94B6039C878B87F7
:1019300088E30E94B60389E30E94B6031C0189E391
:101940000E94B6038AE30E94B6039A8389838AE3DE
:101950000E94B6038BE30E94B6039C838B838BE3C8
:101960000E94B6038CE30E94B60397FD01969C018A
:10197000359527953E832D838CE30E94B6038DE336
:101980000E94B60397FD01969C01359527953887EF
:101990002F838DE30E94B6038EE30E94B603BC0141
:1019A000990F880B990B0E94D61326E636E648E07D
:1019B00051E40E942C130E949E134B017A87698781
:1019C0008EE30E94B6030E942A04882351F080917E
:1019D00073088B3030F08D3030F18551823008F44F
:1019E00052C060E070E080EC9FE739C034E0C3CEC5
:1019F0008BE690E0E2CE90E080E0DFCE88E022331C
:101A000009F4E9CE84E0233309F4E5CE82E02433FF
:101A100009F4E1CE82EC820F883018F42E53330B98
:101A2000D5CE81E0D8CE60916E0870E090E080E085
:101A30000E94D6132DEC3CEC4CEC5DE30E948B1421
:101A40002B013C0160916D0870E090E080E00E9405
:101A5000D6139B01AC01C301B2010E94BB120E94CC
:101A6000A513D62E0E942A04882341F08091730882
:101A70008C3009F485C0C8F48B3081F160E070E0EF
:101A800080EC9FE753C060916D0870916E087627D7
:101A90006727762790E080E00E94D4132DEC3CEC81
:101AA0004CEC5DE30E948B14DACF8551823030F725
:101AB000C0906F086C2D70E0762F662766277F77C1
:101AC00080917008682B90E080E00E94D4132DEC88
:101AD0003CEC4CEC5DE30E948B146EC060916F088F
:101AE00070E090E080E00E94D4132B013C01C09094
:101AF0007008C7FE0AC0AC019B0160E070E080E89E
:101B00009FEB0E94BA122B013C016C2D6F7070E0AC
:101B100090E080E00E94D6132DEC3CEC4CEC5DE3B1
:101B20000E948B14A30192010E94BB120E94A51374
:101B3000C62E6D2D70E090E080E00E94D4139B01D2
:101B4000AC010E94F81481110CC06C2D70E090E083
:101B500080E00E94D4139B01AC010E94F8148823FA
:101B600079F10E94870660E085E00E942F076DE70B
:101B700072E086E398E00E94B9080E94BD02B7CEE9
:101B8000C0906F086C2D70E090E080E00E94D4134C
:101B90002B013C01609170086F7070E090E080E074
:101BA0000E94D6132DEC3CEC4CEC5DE30E948B14B0
:101BB000A30192010E94BB12C7FEB8CF9058B6CFC6
:101BC0008C2D6AE00E94FD14805D80931702905D69
:101BD000909318023FED30931B028D2D0E94FD144F
:101BE000805D80930702905D909308020E948706B3
:101BF00060E080E00E942F0760E172E086E398E0F9
:101C00000E94B90887EA92E00E94D50783E892E033
:101C10000E94D50787EA92E00E94D50769EA72E040
:101C200089E997E00E94B90860E172E089E997E0EC
:101C30000E94B90861E080E00E942F0760E072E036
:101C400086E398E00E94B90887EA92E00E94D507EF
:101C50006EEB72E089E997E00E94B90860E072E0FB
:101C600089E997E00E94B90868EE73E080E090E0AF
:101C70000E94F8030E94870660E080E00E942F0720
:101C800063ED72E086E398E00E94B90860E081E1CC
:101C90000E942F07B70186E398E00E949F0768EF34
:101CA00072E086E398E00E94B90887EA92E00E9419
:101CB000D50762EE72E089E997E00E94B908B701A2
:101CC00089E997E00E949F0767EF72E089E997E052
:101CD0000E94B90861E080E00E942F076CEF72E07B
:101CE00086E398E00E94B90861E082E10E942F0734
:101CF000B80186E398E00E949F0768EF72E086E3F0
:101D000098E00E94B90887EA92E00E94D5076CE04B
:101D100073E089E997E00E94B908B80189E997E082
:101D20000E949F0767EF72E089E997E00E94B90877
:101D300060ED77E080E090E00E94F8030E94870663
:101D400060E080E00E942F0761E273E086E398E0A4
:101D50000E94B90860E082E10E942F076B857C85B4
:101D600086E398E00E949F0768EF72E086E398E0C0
:101D70000E94B90887EA92E00E94D50761E373E008
:101D800089E997E00E94B9086B857C8589E997E02D
:101D90000E949F0767EF72E089E997E00E94B90807
:101DA00061E080E00E942F0766E473E086E398E03C
:101DB0000E94B90861E081E10E942F07B10186E32A
:101DC00098E00E949F0768EF72E086E398E00E9427
:101DD000B90887EA92E00E94D50765E573E089E9D2
:101DE00097E00E94B908B10189E997E00E949F0736
:101DF00067EF72E089E997E00E94B90860ED77E04B
:101E000080E090E00E94F8030E94870660E080E096
:101E10000E942F076AE673E086E398E00E94B90803
:101E200060E081E10E942F0769817A8186E398E072
:101E30000E949F0768EF72E086E398E00E94B9086D
:101E400087EA92E00E94D50769E773E089E997E0A5
:101E50000E94B90869817A8189E997E00E949F0709
:101E600067EF72E089E997E00E94B908C701800F27
:101E7000911F2B853C85820F931F820D931D298115
:101E80003A81820F931F65E070E00E940915072ECA
:101E9000000C880B990B0E94D6132B013C0160E0CB
:101EA00080E00E942F076EE873E086E398E00E94CE
:101EB000B90860E081E10E942F07B301A20186E327
:101EC00098E00E94E80787EA92E00E94D5076EE852
:101ED00073E089E997E00E94B908B301A20189E99A
:101EE00097E00E94E80761E080E00E942F0767EA20
:101EF00073E086E398E00E94B90861E083E10E9404
:101F00002F076D817E8186E398E00E949F076FEC2A
:101F100073E086E398E00E94B90887EA92E00E94A5
:101F2000D50769EB73E089E997E00E94B9086D81F4
:101F30007E8189E997E00E949F076EEC73E089E952
:101F400097E00E94B90868EE73E080E090E00E949C
:101F5000F8030E94870660E080E00E942F0766ED8C
:101F600073E086E398E00E94B90860E083E10E9494
:101F70002F076F81788586E398E00E949F076FECBA
:101F800073E086E398E00E94B90887EA92E00E9435
:101F9000D50767EE73E089E997E00E94B9086F8181
:101FA000788589E997E00E949F076EEC73E089E9E4
:101FB00097E00E94B90861E080E00E942F076CEF73
:101FC00073E086E398E00E94B90861E08CE00E942B
:101FD0002F07B40186E398E00E949F076AE074E04F
:101FE00086E398E00E94B90887EA92E00E94D5074C
:101FF0006EE074E089E997E00E94B908B40189E9CC
:1020000097E00E949F076AE074E089E997E00E94E8
:10201000B90860ED77E080E090E00E94F8030E944C
:10202000870663E274E086E398E00E94B90860E006
:1020300084E10E942F076B817C8186E398E00E94F7
:102040009F0769E374E086E398E00E94B90887EA95
:1020500092E00E94D50763E274E089E997E00E946C
:10206000B9086B817C8189E997E00E949F0768E34A
:1020700074E089E997E00E94B90868EE73E080E0B7
:1020800090E00E94F8030E9487063EE5E31631E0E7
:10209000F3060CF46CC160E080E00E942F076CE353
:1020A00074E086E398E00E94B90887EA92E00E9413
:1020B000D50787EA92E00E94D50786E594E00E9462
:1020C000D50787EA92E00E94D5076CE374E089E9BE
:1020D00097E00E94B908043F11400CF460C161E030
:1020E00080E00E942F076FE874E086E398E00E948A
:1020F000B90887EA92E00E94D50787EA92E00E9439
:10210000D5076FE874E089E997E00E94B90860EDAF
:1021100077E080E090E00E94F8030E9487062B851C
:102120003C852C3231400CF452C160E080E00E94CA
:102130002F0762EC74E086E398E00E94B90887EA12
:1021400092E00E94D50787EA92E00E94D50762ECF0
:1021500074E089E997E00E94B90880919107909115
:102160009207019690939207809391079AEF291610
:1021700031040CF444C161E080E00E942F0765EF58
:1021800074E086E398E00E94B90865EF74E089E99D
:1021900097E00E94B90860ED77E080E090E00E944F
:1021A000F8030E94870629813A81243F31400CF4CC
:1021B0003EC187EA92E00E94D50787EA92E00E943A
:1021C000D50766E275E089E997E00E94B908809139
:1021D00093079091940701969093940780939307A7
:1021E0002D813E8161E080E0243231050CF038C160
:1021F0000E942F0764E575E086E398E00E94B90825
:1022000087EA92E00E94D50787EA92E00E94D5070C
:1022100064E575E089E997E00E94B9088091930729
:10222000909194070196909394078093930760EDA3
:1022300077E080E090E00E94F8030E9487068F819B
:10224000988560E0C3970CF022C180E00E942F07C0
:102250006AE975E086E398E00E94B90887EA92E0AF
:102260000E94D50787EA92E00E94D5076AE975E0E7
:1022700089E997E00E94B9088091930790919407AB
:102280000196909394078093930729853A8561E09E
:1022900080E0293231050CF012C10E942F076EED4B
:1022A00075E086E398E00E94B90887EA92E00E9410
:1022B000D50787EA92E00E94D50760EF75E089E9CB
:1022C00097E00E94B9088091930790919407019636
:1022D000909394078093930760ED77E080E090E01F
:1022E0000E94F8030E9487068B819C81803991406F
:1022F0000CF40CC1809191079091920760E00197D6
:1023000009F0F0C080E00E942F0767E176E086E3E5
:1023100098E00E94B90887EA92E00E94D50787EA10
:1023200092E00E94D50767E176E089E997E00E9494
:10233000B90868EE73E080E090E00E94F8030E9424
:1023400087068091930790919407089709F0E9C058
:1023500067E676E086E398E00E94B90887EA92E0B3
:102360000E94D5076EE976E089E997E004CC87EA18
:1023700092E00E94D50787EA92E00E94D50768E7BD
:1023800074E089E997E00E94B908809193079091E1
:102390009407019690939407809393079CCE87EAC5
:1023A00092E00E94D50787EA92E00E94D5076AEA88
:1023B00074E089E997E00E94B908809193079091B1
:1023C000940701969093940780939307A0CE87EA91
:1023D00092E00E94D50787EA92E00E94D5076DED52
:1023E00074E089E997E00E94B90880919307909181
:1023F000940701969093940780939307B7CE87EA4A
:1024000092E00E94D50787EA92E00E94D5076FE02C
:1024100075E089E997E00E94B9088091930790914F
:10242000940701969093940780939307B4CE61E04C
:1024300080E00E942F0760E475E086E398E00E9448
:10244000B90887EA92E00E94D50787EA92E00E94E5
:10245000D50760E475E089E997E00E94B908C0CE2D
:102460000E942F0760E775E086E398E00E94B908B4
:1024700087EA92E00E94D50787EA92E00E94D5079A
:1024800060E775E089E997E00E94B908D0CE80E066
:102490000E942F0765EB75E086E398E00E94B9087B
:1024A00087EA92E00E94D50787EA92E00E94D5076A
:1024B00065EB75E089E997E00E94B908E6CE0E94D5
:1024C0002F0762E076E086E398E00E94B90887EA89
:1024D00092E00E94D50787EA92E00E94D50762E069
:1024E00076E0EDCE80E00E942F0765E376E086E39C
:1024F00098E00E94B90887EA92E00E94D50787EA2F
:1025000092E00E94D50765E376E00FCF87EA92E07C
:102510000E94D50787EA92E00E94D5076EE476E034
:1025200004CF6DED76E086E398E00E94B90887EA73
:1025300092E00E94D5076EE077E016CF82E492E049
:1025400090934F0880934E0880918F079091900749
:102550008E54984071F4E0916108F0916208908186
:102560008091630880958923808310929007109250
:102570008F0708955058BB27AA270E94D2120C94A7
:102580004C140E943E1438F00E94451420F039F497
:102590009F3F19F426F40C943B140EF4E095E7FBEE
:1025A0000C943514E92F0E945D1458F3BA17620792
:1025B00073078407950720F079F4A6F50C947F142F
:1025C0000EF4E0950B2EBA2FA02D0B01B90190014E
:1025D0000C01CA01A0011124FF27591B99F0593F92
:1025E00050F4503E68F11A16F040A22F232F342FDA
:1025F0004427585FF3CF469537952795A795F04028
:102600005395C9F77EF41F16BA0B620B730B840B3C
:10261000BAF09150A1F0FF0FBB1F661F771F881FF4
:10262000C2F70EC0BA0F621F731F841F48F487954C
:1026300077956795B795F7959E3F08F0B0CF93953E
:10264000880F08F09927EE0F9795879508950E94B7
:10265000111408F481E008950E9440130C944C1466
:102660000E94451458F00E943E1440F029F45F3F48
:1026700029F00C94351451110C9480140C943B14D3
:102680000E945D1468F39923B1F3552391F3951BD0
:10269000550BBB27AA2762177307840738F09F5F83
:1026A0005F4F220F331F441FAA1FA9F335D00E2EF0
:1026B0003AF0E0E832D091505040E695001CCAF75D
:1026C0002BD0FE2F29D0660F771F881FBB1F261720
:1026D00037074807AB07B0E809F0BB0B802DBF01F7
:1026E000FF2793585F4F3AF09E3F510578F00C94C6
:1026F00035140C9480145F3FE4F3983ED4F3869530
:1027000077956795B795F7959F5FC9F7880F911DE6
:102710009695879597F90895E1E0660F771F881FD2
:10272000BB1F621773078407BA0720F0621B730B85
:10273000840BBA0BEE1F88F7E09508950E94A5134D
:102740006894B1110C94801408950E94651488F067
:102750009F5798F0B92F9927B751B0F0E1F0660F65
:10276000771F881F991F1AF0BA95C9F714C0B130A6
:1027700091F00E947F14B1E008950C947F14672FAC
:10278000782F8827B85F39F0B93FCCF386957795D5
:102790006795B395D9F73EF49095809570956195BE
:1027A0007F4F8F4F9F4F0895E89409C097FB3EF4E9
:1027B00090958095709561957F4F8F4F9F4F99238E
:1027C000A9F0F92F96E9BB279395F695879577950C
:1027D0006795B795F111F8CFFAF4BB0F11F460FFCC
:1027E0001BC06F5F7F4F8F4F9F4F16C0882311F024
:1027F00096E911C0772321F09EE8872F762F05C038
:10280000662371F096E8862F70E060E02AF09A95D2
:10281000660F771F881FDAF7880F9695879597F9C7
:102820000895990F0008550FAA0BE0E8FEEF161661
:102830001706E807F907C0F012161306E407F507B4
:1028400098F0621B730B840B950B39F40A2661F028
:10285000232B242B252B21F408950A2609F4A140CB
:10286000A6958FEF811D811D089597F99F6780E8D8
:1028700070E060E008959FEF80EC089500240A94D2
:102880001616170618060906089500240A9412164B
:102890001306140605060895092E0394000C11F47E
:1028A000882352F0BB0F40F4BF2B11F460FF04C02B
:1028B0006F5F7F4F8F4F9F4F089557FD9058440F84
:1028C000551F59F05F3F71F04795880F97FB991F8F
:1028D00061F09F3F79F0879508951216130614064C
:1028E000551FF2CF4695F1DF08C0161617061806D9
:1028F000991FF1CF86957105610508940895E894B4
:10290000BB2766277727CB0197F908950E941114FA
:1029100008F48FEF08950E949E140C944C140E94AA
:102920003E1438F00E94451420F0952311F00C94C9
:1029300035140C943B1411240C9480140E945D14E3
:1029400070F3959FC1F3950F50E0551F629FF00102
:10295000729FBB27F00DB11D639FAA27F00DB11D1B
:10296000AA1F649F6627B00DA11D661F829F2227A4
:10297000B00DA11D621F739FB00DA11D621F839F2B
:10298000A00D611D221F749F3327A00D611D231F01
:10299000849F600D211D822F762F6A2F11249F574F
:1029A00050409AF0F1F088234AF0EE0FFF1FBB1F52
:1029B000661F771F881F91505040A9F79E3F510511
:1029C00080F00C9435140C9480145F3FE4F3983E2F
:1029D000D4F3869577956795B795F795E7959F5FBB
:1029E000C1F7FE2B880F911D9695879597F908954D
:1029F0000E941114880B990B0895991B79E004C06B
:102A0000991F961708F0961B881F7A95C9F780952D
:102A1000089597FB072E16F4009407D077FD09D090
:102A20000E94471507FC05D03EF4909581959F4F75
:102A30000895709561957F4F0895A1E21A2EAA1B03
:102A4000BB1BFD010DC0AA1FBB1FEE1FFF1FA2175E
:102A5000B307E407F50720F0A21BB30BE40BF50B5B
:102A6000661F771F881F991F1A9469F760957095E4
:102A7000809590959B01AC01BD01CF010895EE0FAB
:102A8000FF1F881F8BBF0790F691E02D1994AA1B9A
:102A9000BB1B51E107C0AA1FBB1FA617B70710F049
:102AA000A61BB70B881F991F5A95A9F7809590957B
:102AB000BC01CD01089511E0C7E4D1E000E006C0FB
:102AC000802FFE010E943F152196011DC834D107B9
:102AD00080E00807A9F7F894FFCF52482020203D56
:102AE0002030302E30202520200054656D70203D90
:102AF0002030302E30204320200000000000500203
:102B0000BA01E7019D021802F6010A020000000066
:102B10003E07BA01E805E705000000005205BA01CA
:102B2000E8055105AE05C60539050D0A006E616E52
:102B300000696E66006F76660041697220517561AA
:102B40006C697479204D6F6E69746F72696E67205D
:102B500053797374656D004572726F72002A2A2F63
:102B60002F2F2F2F2F2F2F2F2F2F2F2F2F2F2F2F75
:102B70002F2F2F2F2F2F2F2F2F2F2F2F2F2F2F2A6A
:102B80002A200054656D706572617475726520202D
:102B900020202020203A200048756D6964697479EE
:102BA000202020202020202020203A2000416D6F6E
:102BB000756E74206F6620434F3A2000416D6F752B
:102BC0006E74206F6620434F2020202020203A2062
:102BD000002050504D00416D6F756E74206F66205F
:102BE000434F323A2000416D6F756E74206F66203E
:102BF000434F3220202020203A2000416D6F756E17
:102C000074206F6620534F323A2000416D6F756E0D
:102C100074206F6620534F3220202020203A20005D
:102C2000416D6F756E74206F66204E4F3A200041E3
:102C30006D6F756E74206F66204E4F20202020200F
:102C4000203A2000416D6F756E74206F66204F3200
:102C50003A2000416D6F756E74206F66204F3220F0
:102C600020202020203A20004169722051756C6993
:102C7000747920496E6465782028415149293A20A9
:102C800000416D6F756E74206F6620504D322E3589
:102C90003A2000416D6F756E74206F6620504D3282
:102CA0002E352020203A20002075672F6D5E3300DE
:102CB000416D6F756E74206F6620504D31303A2033
:102CC00000416D6F756E74206F6620504D3130205D
:102CD0002020203A20004E6F697365204C65766590
:102CE0006C3A2000206442004E6F697365204C6589
:102CF00076656C202020202020203A2000506F7321
:102D00006962696C697479206F66207261696E3AD4
:102D10002000206D6D00416D6F756E74206F662010
:102D2000434F20697320766572792068696768006F
:102D30002F2F2F2F2F2F2F2F2F2F2F2F2F2F2F2FA3
:102D40002F2F2F2F2F2F2F2F2F2F2F2F2F2F2F2F93
:102D50002000416D6F756E74206F6620434F2069AF
:102D60007320737461626C6500416D6F756E7420C1
:102D70006F6620434F322069732076657279206830
:102D800069676800416D6F756E74206F6620434FF0
:102D90003220697320737461626C6500416D6F75D8
:102DA0006E74206F6620534F3220697320766572EF
:102DB00079206869676800416D6F756E74206F6671
:102DC00020534F3220697320737461626C65004137
:102DD0006D6F756E74206F66204E4F20697320767C
:102DE000657279206869676800416D6F756E74203F
:102DF0006F66204E4F20697320737461626C6500AA
:102E0000416D6F756E74206F66204F32206973209C
:102E10007665727920476F6F6400416D6F756E74CF
:102E2000206F66204F32206973204C6F7700416D10
:102E30006F756E74206F6620504D322E3520697389
:102E4000205374616E6461726400504D322E3520DF
:102E50006C6576656C20556E6865616C7468792068
:102E6000666F722073656E73617469766520477250
:102E70006F757000416D6F756E74206F6620504DD8
:102E80003130206973205374616E64617264005044
:102E90004D3130206C6576656C20556E6865616CCF
:102EA00074687920666F722073656E7361746976D9
:102EB000652047726F7570004661696E74204C65BD
:102EC00076656C204E6F697365005061696E742081
:102ED0004C6576656C204E6F697365004D6F646557
:102EE00072617465204C6576656C204E6F69736500
:102EF00000486967682070726F626162696C69740A
:102F000079206F662041636964207261696E0048B0
:102F10006967682070726F626162696C6974792098
:102F20006F66207261696E004C6573732070726FFA
:102F3000626162696C697479206F66207261696E82
:102F4000005468697320417265612076657265205E
:102F50004D756368205375697461626C6520466FB6
:102F60007220456475636174696F6E616C20496E8F
:102F700073746974757465002A2A2A2A54686973FF
:102F800020417265612076657265204D7563682009
:102F90005375697461626C6520466F722045647573
:102FA000636174696F6E616C20496E7374697475C6
:102FB00074652A2A2A2A005468697320417265615F
:102FC000206E6F74205375697461626C6520466F62
:102FD0007220456475636174696F6E616C20496E1F
:102FE00073746974757465002A2A2A2A546869738F
:102FF0002041726561206E6F74205375697461623F
:103000006C6520466F7220456475636174696F6EEC
:10301000616C20496E737469747574652A2A2A2A52
:023020000000AE
:020000040003F7
:10E000000D9489F10D94B2F10D94B2F10D94B2F129
:10E010000D94B2F10D94B2F10D94B2F10D94B2F1F0
:10E020000D94B2F10D94B2F10D94B2F10D94B2F1E0
:10E030000D94B2F10D94B2F10D94B2F10D94B2F1D0
:10E040000D94B2F10D94B2F10D94B2F10D94B2F1C0
:10E050000D94B2F10D94B2F10D94B2F10D94B2F1B0
:10E060000D94B2F10D94B2F10D94B2F10D94B2F1A0
:10E070000D94B2F10D94B2F10D94B2F10D94B2F190
:10E080000D94B2F10D94B2F10D94B2F10D94B2F180
:10E090000D94B2F10D94B2F10D94B2F10D94B2F170
:10E0A0000D94B2F10D94B2F10D94B2F10D94B2F160
:10E0B0000D94B2F10D94B2F10D94B2F10D94B2F150
:10E0C0000D94B2F10D94B2F10D94B2F10D94B2F140
:10E0D0000D94B2F10D94B2F10D94B2F10D94B2F130
:10E0E0000D94B2F141546D656761323536300041AF
:10E0F000726475696E6F206578706C6F72657220DE
:10E1000073746B3530305632206279204D4C530099
:10E11000426F6F746C6F616465723E004875683F52
:10E1200000436F6D70696C6564206F6E203D200048
:10E130004350552054797065202020203D20005FF9
:10E140005F4156525F415243485F5F3D2000415658
:10E1500052204C696243205665723D20004743437C
:10E160002056657273696F6E203D20004350552024
:10E1700049442020202020203D20004C6F7720663D
:10E18000757365202020203D20004869676820665F
:10E190007573652020203D200045787420667573D6
:10E1A00065202020203D20004C6F636B2066757336
:10E1B000652020203D20004D617220203720323024
:10E1C000313300312E362E3800342E332E350056A2
:10E1D00023202020414444522020206F7020636F70
:10E1E00064652020202020696E73747275637469E1
:10E1F0006F6E2061646472202020496E74657272B3
:10E20000757074006E6F20766563746F7200726A49
:10E210006D702020006A6D70200057686174207056
:10E220006F72743A00506F7274206E6F7420737541
:10E2300070706F72746564004D7573742062652030
:10E2400061206C6574746572002000577269747483
:10E25000696E672045450052656164696E672045B7
:10E26000450045452065727220636E743D00504F35
:10E27000525400303D5A65726F2061646472003FF1
:10E280003D43505520737461747300403D454550C3
:10E29000524F4D207465737400423D426C696E6B41
:10E2A000204C454400453D44756D70204545505215
:10E2B0004F4D00463D44756D7020464C415348001B
:10E2C000483D48656C70004C3D4C69737420492F83
:10E2D0004F20506F72747300513D51756974005234
:10E2E0003D44756D702052414D00563D73686F7707
:10E2F00020696E7465727275707420566563746FF0
:10E30000727300593D506F727420626C696E6B00BD
:10E310002A0011241FBECFEFD1E2DEBFCDBF01E046
:10E320000CBF12E0A0E0B2E0EEE1FDEF03E00BBFB6
:10E3300002C007900D92A030B107D9F712E0A0E01B
:10E34000B2E001C01D92AE30B107E1F70F9460F367
:10E350000D948DFE01E20EBF0FEF0DBF11241FBE05
:10E360000D9460F30D9400F020E030E040ED57E0B4
:10E3700005C0FA013197F1F72F5F3F4F2817390792
:10E38000C0F308959C01260F311DC901A0E0B0E043
:10E390002F5F3F4FABBFFC018791882361F08093D3
:10E3A000C6008091C00086FFFCCF8091C0008064D1
:10E3B0008093C000EACF08958DE08093C6008091DD
:10E3C000C00086FFFCCF8091C00080648093C000B5
:10E3D0008AE08093C6008091C00086FFFCCF8091C8
:10E3E000C00080648093C00008950F94C2F10F9420
:10E3F000DCF10895FC019081992359F09093C600B7
:10E400008091C00086FFFCCF8091C0008064809323
:10E41000C0003196992379F70895282F982F929567
:10E420009F70892F805D8A3308F0895F8093C600D2
:10E430008091C00086FFFCCF8091C00080648093F3
:10E44000C000822F8F70982F905D9A3308F0995FEB
:10E450009093C6008091C00086FFFCCF8091C000E1
:10E4600080648093C00008959C01FB01853691056E
:10E470001CF46330710594F0C90164E670E00F94F8
:10E480002EFE605D7F4F6093C6008091C00086FFC6
:10E49000FCCF8091C00080648093C0002B30310598
:10E4A00014F43297B4F0C90164E670E00F942EFEC4
:10E4B0006AE070E00F942EFE605D7F4F6093C600AF
:10E4C0008091C00086FFFCCF8091C0008064809363
:10E4D000C000C9016AE070E00F942EFEC0968093E0
:10E4E000C6008091C00086FFFCCF8091C000806490
:10E4F0008093C00008951F93182F8EE692EE60E07F
:10E500000F94C2F11093C6008091C00086FFFCCF2B
:10E510008091C00080648093C0000F94DCF11F9153
:10E5200008952F923F924F925F926F927F928F92B7
:10E530009F92AF92BF92CF92DF92EF92FF920F9392
:10E540001F93DF93CF93CDB7DEB762970FB6F894E2
:10E55000DEBF0FBECDBF382E622ECA01DB015C01CB
:10E560006D01772420E2222E2E010894411C511CBB
:10E570008BC081E0A81680E0B80681E0C80680E084
:10E58000D80628F0C601AA27BB270F940DF2BB2797
:10E59000AD2D9C2D8B2D0F940DF28A2D0F940DF225
:10E5A0002092C6008091C00086FFFCCF8091C00001
:10E5B00080648093C0009DE29093C6008091C0006B
:10E5C00086FFFCCF8091C00080648093C0002092C1
:10E5D000C6008091C00086FFFCCF8091C00080649F
:10E5E0008093C00019828601750188249924A1E0D6
:10E5F0003A1651F03A1620F0B2E03B1661F409C029
:10E600000BBFF701779007C0C7010F9477FE782EF4
:10E6100002C0F7017080872D0F940DF22092C60082
:10E620008091C00086FFFCCF8091C0008064809301
:10E63000C000872D8052F401EF70F0708F3520F408
:10E64000E40DF51D708204C0E40DF51D8EE280839B
:10E650000894E11CF11C011D111D0894811C911CE2
:10E6600090E18916910409F0C2CF80E190E0A0E02A
:10E67000B0E0A80EB91ECA1EDB1E198AC2010F9493
:10E68000FAF10F94DCF16A94662009F072CF629679
:10E690000FB6F894DEBF0FBECDBFCF91DF911F91B3
:10E6A0000F91FF90EF90DF90CF90BF90AF909F9031
:10E6B0008F907F906F905F904F903F902F90089534
:10E6C0002F923F924F925F926F927F928F929F9282
:10E6D000AF92BF92CF92DF92EF92FF920F931F9370
:10E6E000DF93CF93CDB7DEB7CD53D1400FB6F894BB
:10E6F000DEBF0FBECDBF01E20EBF0FEF0DBF94B75F
:10E70000F894A89514BE80916000886180936000A1
:10E7100010926000789493FF05C0E0910002F091A0
:10E7200001021995279A2F9A8091C00082608093E8
:10E73000C00080E18093C40088E18093C1000000A4
:10E74000EE24FF24870144E0A42EB12CCC24DD2448
:10E7500024C0C5010197F1F70894E11CF11C011DCB
:10E76000111D21E2E2162EE4F20620E0020720E06D
:10E77000120718F031E0C32ED12CC801B70127ECE5
:10E780003BE140E050E00F9441FE611571058105C9
:10E79000910519F485B1805885B98091C00087FD35
:10E7A00003C0C114D104A9F2A6014F5F5F4FC25E3E
:10E7B000DE4F59834883CE51D140C25EDE4F8881FF
:10E7C0009981CE51D140019711F00D9410FEC05D9A
:10E7D000DE4F19821882C053D14060E0C15DDE4F28
:10E7E0001882CF52D14088249924C35DDE4F19820C
:10E7F0001882CD52D140C05EDE4F188219821A8233
:10E800001B82C052D140CE5CDE4F188219821A8220
:10E810001B82C253D140EE24FF2487010BBFF701B6
:10E8200007911691C45CDE4F19830883CC53D14005
:10E830000D940BFEC25EDE4F28813981CE51D1404E
:10E840002130310509F52091C600C25EDE4F1982E4
:10E850001882CE51D14022C02F5F3F4F4F4F5F4FA4
:10E86000213082E138078AE7480780E0580780F0C6
:10E87000C45CDE4FE881F981CC53D140EF5FFF4F9C
:10E8800019F0EE27FF27099420E030E040E050E047
:10E890008091C00087FFE0CF2091C600C35DDE4FAE
:10E8A00048815981CD52D1404F5F5F4FC35DDE4FEC
:10E8B00059834883CD52D140213209F063C64A3092
:10E8C000510508F05FC60894811C911C53E0851621
:10E8D000910409F059C600E010E018C081E280936D
:10E8E000C6008091C00086FFFCCF8091C00080648C
:10E8F0008093C0002F5F3F4F2931310579F70F9486
:10E90000DCF10F5F1F4F0530110519F020E030E0FA
:10E91000E5CF10920A0210920B0210920C02109294
:10E920000D02109206021092070210920802109235
:10E930000902109202021092030210920402109235
:10E9400005028FEE90EE60E00F94F5F180E191EE1C
:10E9500060E00F94C2F18091C00087FFFCCF9091DE
:10E96000C600903608F09F759032B8F09093C600BC
:10E970008091C00086FFFCCF8091C00080648093AE
:10E98000C000A0E2A093C6008091C00086FFFCCF2B
:10E990008091C00080648093C000983409F4D7C18E
:10E9A0009934B8F4923409F459C1933458F490333B
:10E9B00019F1903308F4E3C59F33A1F1903409F0C5
:10E9C000DEC5BDC0953409F470C1963409F0D7C5D1
:10E9D00098C1923509F42BC2933538F49C3409F46C
:10E9E000F5C1913509F0CBC518C2963509F445C279
:10E9F000993509F0C4C567C483E792EE62E00F94CD
:10EA0000F5F110920602109207021092080210927D
:10EA1000090210920A0210920B0210920C0210923C
:10EA20000D0213C18FE792EE62E00F94F5F18FEEC5
:10EA300090EE60E00F94F5F181E291EE60E00F94CA
:10EA4000C2F187EB91EE60E00F94F5F180E391EE77
:10EA500060E00F94C2F184EE90EE60E00F94F5F167
:10EA60008FE391EE60E00F94C2F186E090E061E008
:10EA700070E00F9434F20F94DCF18DE591EE60E0DC
:10EA80000F94C2F189EC91EE60E00F94F5F18EE401
:10EA900091EE60E00F94C2F183EC91EE60E00F9490
:10EAA000F5F18CE691EE60E00F94C2F18EE10F94E7
:10EAB0000DF288E90F940DF281E00F940DF20F949E
:10EAC000DCF18BE791EE60E00F94C2F119E0E0E039
:10EAD000F0E010935700E4918E2F0F940DF20F94F5
:10EAE000DCF18AE891EE60E00F94C2F1E3E0F0E03F
:10EAF00010935700E4918E2F0F940DF20F94DCF1D8
:10EB000089E991EE60E00F94C2F1E2E0F0E0109349
:10EB10005700E4918E2F0F940DF20F94DCF188EAE8
:10EB200091EE60E00F94C2F1E1E0F0E01093570045
:10EB30001491812F0F940DF20F94DCF107CF8BE825
:10EB400092EE62E00F94F5F18BE492EE60E00F94A8
:10EB5000F5F10F94DCF100E010E019C0C8016F2D51
:10EB60000F947FFEFF2031F489E492EE60E00F9471
:10EB7000C2F10BC0F092C6008091C00086FFFCCFAE
:10EB80008091C00080648093C0000F5F1F4FC80158
:10EB900081519F41A0E0B0E0ABBFFC01F790BAE229
:10EBA000FB1621F0E2E000301E07C1F60F94DCF105
:10EBB0000F94DCF187E592EE60E00F94F5F10F948D
:10EBC000DCF1CC24DD2400E010E01EC0C8010F946D
:10EBD00077FEF82E882331F489E492EE60E00F94FA
:10EBE000C2F10BC08093C6008091C00086FFFCCFAD
:10EBF0008091C00080648093C000FE1419F00894D6
:10EC0000C11CD11C0F5F1F4FC80181519F41A0E063
:10EC1000B0E0ABBFFC01E790FAE2EF1621F022E092
:10EC20000030120799F60F94DCF10F94DCF182E6C4
:10EC300092EE60E00F94C2F1C60161E070E00F94C3
:10EC400034F20F94DCF10F94DCF110920202109276
:10EC50000302109204021092050278CE89E992EE26
:10EC600062E00F94F5F1279A2F9A16C02F9880E052
:10EC700090E0E0EDF7E03197F1F7019684369105E9
:10EC8000C1F72F9A80E090E0E0EDF7E03197F1F7DF
:10EC9000019684369105C1F78091C00087FFE6CFC9
:10ECA0008091C00087FFFCCF64C485EA92EE62E0E9
:10ECB0000F94F5F140910202509103026091040219
:10ECC0007091050281E020E10F9491F2809102029F
:10ECD00090910302A0910402B091050280509F4FD1
:10ECE000AF4FBF4F8093020290930302A0930402A0
:10ECF000B093050280509041A040B04008F426CE69
:10ED0000A4CF83EB92EE62E00F94F5F140910602FE
:10ED100050910702609108027091090280E020E1A1
:10ED20000F9491F28091060290910702A09108023F
:10ED3000B091090280509F4FAF4FBF4F80930602A2
:10ED400090930702A0930802B0930902FFCD80ECD4
:10ED500092EE62E00F94F5F183E792EE60E00F949B
:10ED6000F5F18FE792EE60E00F94F5F18BE892EE0B
:10ED700060E00F94F5F189E992EE60E00F94F5F10F
:10ED800085EA92EE60E00F94F5F183EB92EE60E09D
:10ED90000F94F5F180EC92EE60E00F94F5F187ECC2
:10EDA00092EE60E00F94F5F188ED92EE60E00F9442
:10EDB000F5F18FED92EE60E00F94F5F18AEE92EEB0
:10EDC00060E00F94F5F183E093EEBDCD87EC92EE19
:10EDD00062E00F94F5F181E40F947BF282E40F94EA
:10EDE0007BF283E40F947BF284E40F947BF285E45E
:10EDF0000F947BF286E40F947BF287E40F947BF20E
:10EE000088E40F947BF28AE40F947BF28BE40F94F6
:10EE10007BF28CE40F947BF299CD88ED92EE62E068
:10EE20000F94F5F1772473948824992409C48FED05
:10EE300092EE62E00F94F5F140910A0250910B02BC
:10EE400060910C0270910D0282E020E10F9491F22A
:10EE500080910A0290910B02A0910C02B0910D02D8
:10EE600080509F4FAF4FBF4F80930A0290930B0289
:10EE7000A0930C02B0930D0269CD8AEE92EE62E08F
:10EE80000F94F5F184EE90EE60E00F94F5F18FECC5
:10EE900091EE60E00F94F5F1662477244301CC5D98
:10EEA000DE4F19821882C452D140D401C301B695F5
:10EEB000A79597958795CA5DDE4F88839983AA8326
:10EEC000BB83C652D140CC5DDE4FA881B981C4520C
:10EED000D1401196CC5DDE4FB983A883C452D14096
:10EEE000CD0162E070E00F9434F2B0E2B093C6005E
:10EEF0008091C00086FFFCCF8091C0008064809329
:10EF0000C000EDE2E093C6008091C00086FFFCCF18
:10EF10008091C00080648093C000F0E2F093C6004E
:10EF20008091C00086FFFCCF8091C00080648093F8
:10EF3000C000CA5DDE4FE880F9800A811B81C6529D
:10EF4000D140BB27A12F902F8F2D0F940DF2CA5DBA
:10EF5000DE4F8881C652D1400F940DF2B0E2FB2EF5
:10EF6000F092C6008091C00086FFFCCF8091C00067
:10EF700080648093C0000DE30093C6008091C000C0
:10EF800086FFFCCF8091C00080648093C00010E2B7
:10EF90001093C6008091C00086FFFCCF8091C00016
:10EFA00080648093C0008BBEF3012791C65DDE4F65
:10EFB0002883CA52D140A22EBB24CC24DD2408943D
:10EFC000611C711C811C911C8BBEF3018791282E42
:10EFD0003324442455240894611C711C811C911C09
:10EFE0008BBEF3013791C55DDE4F3883CB52D140E4
:10EFF0000894611C711C811C911C8BBEF30147910C
:10F00000C45DDE4F4883CC52D140ADEFEA2EAFEF66
:10F01000FA2EAFEF0A2FAFEF1A2F6E0C7F1C801E57
:10F02000911E142D032DF22CEE24EA0CFB1C0C1D5A
:10F030001D1D0F940DF220E22093C6008091C000A8
:10F0400086FFFCCF8091C00080648093C000C65DC5
:10F05000DE4F8881CA52D1400F940DF230E23093D6
:10F06000C6008091C00086FFFCCF8091C000806404
:10F070008093C000C45DDE4F8881CC52D1400F9494
:10F080000DF240E24093C6008091C00086FFFCCFA5
:10F090008091C00080648093C000C55DDE4F888190
:10F0A000CB52D1400F940DF250E25093C6008091A4
:10F0B000C00086FFFCCF8091C00080648093C000B8
:10F0C0008FEFE8168FEFF80680E0080780E018075A
:10F0D00031F484E092EE60E00F94C2F1DFC0D80119
:10F0E000C7018070907CA070B0708050904CA040A0
:10F0F000B040D1F52FEF3FE340E050E0E222F322B1
:10F1000004231523CA5DDE4FA880B980CA80DB8046
:10F11000C652D140AE0CBF1CC01ED11EAA0CBB1CD7
:10F12000CC1CDD1C8EE092EE60E00F94C2F1BB2798
:10F13000A12F902F8F2D0F940DF28E2D0F940DF285
:10F1400030E23093C6008091C00086FFFCCF8091F2
:10F15000C00080648093C0004EE34093C60080915D
:10F16000C00086FFFCCF87C08EE09EEFA0E0B0E03D
:10F17000E822F9220A231B239CE0E91694E9F90608
:10F1800090E0090790E0190709F088C0C45DDE4FE0
:10F19000A881CC52D140EA2EFF2400E010E0102FCD
:10F1A0000F2DFE2CEE24C55DDE4FB881CB52D14031
:10F1B000EB0EF11C011D111DD601C501817090706F
:10F1C000A070B070DC0199278827E80EF91E0A1F8D
:10F1D0001B1F20EF30E040E050E0A222B322C42207
:10F1E000D52241E1AA0CBB1CCC1CDD1C4A95D1F7F1
:10F1F000EA0CFB1C0C1D1D1D81E090E0A0E0B0E0BE
:10F20000282239224A225B2235E1220C331C441C7D
:10F21000551C3A95D1F7E20CF31C041D151D57013E
:10F220006801AA0CBB1CCC1CDD1C85E192EE60E0E1
:10F230000F94C2F1C801AA27BB270F940DF2BB2778
:10F24000A12F902F8F2D0F940DF28E2D0F940DF274
:10F2500090E29093C6008091C00086FFFCCF809121
:10F26000C00080648093C000AEE3A093C60080918C
:10F27000C00086FFFCCF8091C00080648093C000F6
:10F28000C601AA27BB270F940DF2BB27AD2D9C2DDD
:10F290008B2D0F940DF28A2D0F940DF20F94DCF14B
:10F2A000CC5DDE4FE881F981C452D140F99709F471
:10F2B0004DCBF4E0EF2EF12C012D112D6E0C7F1CA7
:10F2C000801E911EF2CD83E093EE62E00F94F5F183
:10F2D0008AE192EE60E00F94C2F18091C00087FF56
:10F2E000FCCF1091C6001F751093C6008091C0001E
:10F2F00086FFFCCF8091C00080648093C0000F9493
:10F30000DCF1812F81548A3108F036C1163409F4BA
:10F3100095C0173490F4133409F44EC0143430F40B
:10F320001134F1F0123409F01DC130C0143409F465
:10F3300059C0153409F016C16BC01A3409F4C4C0A1
:10F340001B3438F4173409F48FC0183409F00AC19B
:10F35000A1C01B3409F4D2C01C3409F003C1E8C0B9
:10F360008FEF81B90DC082B1809582B980E090E0C5
:10F37000E0EDF7E03197F1F70196883C9105C1F790
:10F380008091C00087FFEFCF12B8EFC08FEF84B934
:10F390000DC085B1809585B980E090E0E0EDF7E0A3
:10F3A0003197F1F70196883C9105C1F78091C00033
:10F3B00087FFEFCF15B8D9C08FEF87B90DC088B1DF
:10F3C000809588B980E090E0E0EDF7E03197F1F7C3
:10F3D0000196883C9105C1F78091C00087FFEFCF6F
:10F3E00018B8C3C08FEF8AB90DC08BB180958BB9A7
:10F3F00080E090E0E0EDF7E03197F1F70196883C8E
:10F400009105C1F78091C00087FFEFCF1BB8ADC059
:10F410008FEF8DB90DC08EB180958EB980E090E0F0
:10F42000E0EDF7E03197F1F70196883C9105C1F7DF
:10F430008091C00087FFEFCF1EB897C08FEF80BBD1
:10F440000DC081B3809581BB80E090E0E0EDF7E0F6
:10F450003197F1F70196883C9105C1F78091C00082
:10F4600087FFEFCF11BA81C08FEF83BB0DC084B38C
:10F47000809584BB80E090E0E0EDF7E03197F1F714
:10F480000196883C9105C1F78091C00087FFEFCFBE
:10F4900014BA6BC08FEF809301010FC080910201FD
:10F4A00080958093020180E090E0E0EDF7E03197F5
:10F4B000F1F70196883C9105C1F78091C00087FF64
:10F4C000EDCF1092020151C08FEF809304010FC065
:10F4D0008091050180958093050180E090E0E0ED4A
:10F4E000F7E03197F1F70196883C9105C1F78091DB
:10F4F000C00087FFEDCF1092050137C08FEF8093DA
:10F5000007010FC08091080180958093080180E079
:10F5100090E0E0EDF7E03197F1F70196883C910536
:10F52000C1F78091C00087FFEDCF109208011DC088
:10F530008FEF80930A010FC080910B01809580931B
:10F540000B0180E090E0E0EDF7E03197F1F70196F4
:10F55000883C9105C1F78091C00087FFEDCF1092E4
:10F560000B0103C085E292EEEEC98091C00087FFD7
:10F57000FCCF8091C600EAC988E392EEE4C98CE131
:10F5800091EEE1C988249924933011F1943028F444
:10F59000913089F09230B8F408C0953061F195301F
:10F5A000F0F0963009F048C043C02B3109F042C951
:10F5B00091E06BE13FC96227C15DDE4F2883CF52E6
:10F5C000D14092E037C9B22FA0E0622793E032C960
:10F5D000822F90E0A82BB92B622794E02BC92E3004
:10F5E00009F039C3622795E0C05DDE4F19821882A9
:10F5F000C053D1401FC9E1E0F0E0EC0FFD1FC05D3A
:10F60000DE4F08811981C053D140E00FF11F2083E4
:10F610000F5F1F4FC05DDE4F19830883C053D14079
:10F6200062270A171B0709F005C9D80196E002C92D
:10F63000261709F010C303C0973009F0FBC87724E0
:10F640009981933109F412C19431C8F4963009F4C8
:10F65000D8C0973050F4923009F406C1933009F4C1
:10F660006DC0913009F059C253C0913109F477C08F
:10F67000923108F0BBC0903109F04FC2F5C098310B
:10F6800009F487C0993150F4953109F4EFC09531F0
:10F6900008F4C6C1963109F040C2C2C19A3109F4DA
:10F6A0006CC09A3108F491C09B3109F45BC09D3164
:10F6B00009F033C29D81903359F48F81882311F46E
:10F6C0009EE11CC0813011F091E018C098E916C08D
:10F6D000892F807591F0903539F4E0E0F0E089E011
:10F6E0008093570094910AC0983539F4E3E0F0E034
:10F6F00089E080935700949101C090E01A821B82A8
:10F700008D818C831D829E831F8227E030E009C299
:10F710001A8288E08B8381E48C8386E58D8382E581
:10F720008E8389E48F8383E5888780E589878FE5E9
:10F730008A8782E38B872BE030E0F3C18A818139AD
:10F7400041F0823941F0803911F48FE005C080E04A
:10F7500003C082E001C08AE01A828B8344C0772410
:10F76000739482C08D81882311F48EE12CC0813086
:10F7700011F081E028C088E926C01A82E1E0F0E0BB
:10F7800089E08093570084918B831C8224E030E0D1
:10F79000C8C18B81803589F48C81883039F4E2E0EE
:10F7A000F0E089E08093570084910DC0E0E0F0E044
:10F7B00089E080935700849106C0E3E0F0E089E09F
:10F7C0008093570084911A82DFCF8D81836C99E0FA
:10F7D000E1E0F0E0082E90935700E89507B600FCB2
:10F7E000FDCF1A821B8223E030E09BC180EC8A832C
:10F7F000CE5CDE4F188219821A821B82C253D1401E
:10F800008EC18A8190E0A0E0B0E0582F44273327D2
:10F8100022278B8190E0A0E0B0E0DC0199278827C7
:10F82000282B392B4A2B5B2B8D8190E0A0E0B0E098
:10F83000282B392B4A2B5B2B8C8190E0A0E0B0E089
:10F84000BA2FA92F982F8827282B392B4A2B5B2BCF
:10F85000220F331F441F551FC05EDE4F288339839C
:10F860004A835B83C052D1401A8259C13A81C95C34
:10F87000DE4F3883C753D140CA5CDE4F1882C6536F
:10F88000D1408B81C82EDD24CA5CDE4F488159816E
:10F89000C653D140C42AD52A933109F082C0CE5C28
:10F8A000DE4F88819981AA81BB81C253D1408050AB
:10F8B000904CA340B04030F583E0CE5CDE4FE88052
:10F8C000F9800A811B81C253D140F70100935B008C
:10F8D00080935700E89507B600FCFDCFCE5CDE4F65
:10F8E000088119812A813B81C253D14000501F4FAA
:10F8F0002F4F3F4FCE5CDE4F088319832A833B8313
:10F90000C253D140C05EDE4F488159816A817B81FC
:10F91000C052D140DE011B9631E08C9111962C91A2
:10F9200011971296C75CDE4F2883C953D140C85C3B
:10F93000DE4F1882C853D14090E0C85CDE4FE881AA
:10F94000F981C853D1408E2B9F2B0C01FA01609393
:10F950005B0030935700E89511244E5F5F4F6F4F67
:10F960007F4F0EEFE02E0FEFF02ECE0CDF1CC114F8
:10F97000D10499F685E0C05EDE4F088119812A81A5
:10F980003B81C052D140F80120935B008093570027
:10F99000E89507B600FCFDCF81E180935700E8951C
:10F9A00035C0C05EDE4F88819981AA81BB81C0527B
:10F9B000D140B695A795979587957C018601ABE0D8
:10F9C000AA2EB12CAC0EBD1E0BC0D5016D915D01F0
:10F9D000C7010F947FFE0894E11CF11C01501040F8
:10F9E0000115110591F7A60160E070E0440F551F65
:10F9F000661F771FC05EDE4FE880F9800A811B8199
:10FA0000C052D1404E0D5F1D601F711F1A82C05E33
:10FA1000DE4F488359836A837B83C052D1407FC0C5
:10FA2000FA80C55CDE4FF882CB53D140C65CDE4F16
:10FA30001882CA53D1408B81C82EDD24C65CDE4FAC
:10FA400008811981CA53D140C02AD12A1A828981DA
:10FA5000BE016D5F7F4F843121F59601C05EDE4FA0
:10FA6000E880F9800A811B81C052D1400BBFF701A9
:10FA700087919691DB018C9311969C936E5F7F4FDB
:10FA8000D801C7010296A11DB11DC05EDE4F88835B
:10FA90009983AA83BB83C052D14022503040F1F6F3
:10FAA00036C0C05EDE4F288139814A815B81C052F9
:10FAB000D1400894C108D108760100E010E0089414
:10FAC000C11CD11C0894E11CF11C011D111DE20E8A
:10FAD000F31E041F151F21BDBB27A52F942F832FB5
:10FAE00082BD2F5F3F4F4F4F5F4FF89A80B5DB01CC
:10FAF0008D93BD012E153F054007510761F7C05E8C
:10FB0000DE4F288339834A835B83C052D1409601FC
:10FB10002D5F3F4FFB01108204C080EC8A8322E0FE
:10FB200030E08BE18093C6008091C00086FFFCCF5F
:10FB30008091C00080648093C000C15DDE4FF88179
:10FB4000CF52D140F093C6008091C00086FFFCCF19
:10FB50008091C00080648093C000432F3093C60022
:10FB60008091C00086FFFCCF8091C00080648093AC
:10FB7000C000922F2093C6008091C00086FFFCCF6A
:10FB80008091C00080648093C0008EE08093C600A6
:10FB90008091C00086FFFCCF8091C000806480937C
:10FBA000C00065E1C15DDE4FE880CF52D1406E25D7
:10FBB00069276427FE01319610C090819093C6009A
:10FBC0008091C00086FFFCCF31968091C000806498
:10FBD0008093C0006927215030402115310569F715
:10FBE0006093C6008091C00086FFFCCF8091C0006A
:10FBF00080648093C00085B1805885B9772081F4F6
:10FC0000C15DDE4F0881CF52D1400F5FC15DDE4F35
:10FC10000883CF52D14090E0A0E0B0E00D941AF4F8
:10FC200027982F9880E090E020ED37E0F901319798
:10FC3000F1F7019684369105C9F700008091C00064
:10FC40008D7F8093C00081E180935700E895EE2777
:10FC5000FF270994FFCF90E00D941AF497FB092E2B
:10FC600007260AD077FD04D02ED006D000201AF443
:10FC7000709561957F4F0895F6F7909581959F4F08
:10FC80000895A1E21A2EAA1BBB1BFD010DC0AA1FDD
:10FC9000BB1FEE1FFF1FA217B307E407F50720F0F5
:10FCA000A21BB30BE40BF50B661F771F881F991F70
:10FCB0001A9469F760957095809590959B01AC01B9
:10FCC000BD01CF010895AA1BBB1B51E107C0AA1FAC
:10FCD000BB1FA617B70710F0A61BB70B881F991FED
:10FCE0005A95A9F780959095BC01CD010895F99991
:10FCF000FECF92BD81BDF89A992780B50895262F31
:10FD0000F999FECF1FBA92BD81BD20BD0FB6F89400
:0EFD1000FA9AF99A0FBE01960895F894FFCF63
:00000001FF
